:020000040800F2
:1000000000000220B52F000805300008B1020008EA
:100010000530000805300008053000080000000029
:10002000000000000000000000000000552A000849
:1000300005300008000000007D2B0008E12B0008BF
:1000400005300008053000080530000805300008BC
:1000500000000000053000080530000805300008E9
:10006000053000080530000805300008053000089C
:10007000053000080530000805300008053000088C
:10008000053000080530000805300008053000087C
:10009000053000080530000805300008053000086C
:1000A000053000080530000805300008053000085C
:1000B000053000080530000805300008053000084C
:1000C000053000080530000805300008053000083C
:1000D00005300008710B00080530000805300008E5
:1000E000053000080530000805300008053000081C
:1000F000053000080530000805300008053000080C
:1001000005300008053000080530000805300008FB
:1001100005300008053000080530000805300008EB
:1001200005300008053000080530000805300008DB
:1001300005300008053000080530000805300008CB
:1001400005300008053000080530000805300008BB
:1001500005300008053000080530000805300008AB
:10016000053000080530000805300008053000089B
:10017000053000080530000805300008053000088B
:080180000530000805300008FD
:1001880010B5054C237833B9044B13B10448AFF3C9
:1001980000800123237010BD080400200000000027
:1001A8007431000808B5034B1BB103490348AFF38A
:1001B800008008BD000000000C0400207431000815
:1001C80080B500AF00F0D6FC00BF80BD80B485B01C
:1001D80000AF786039604FF0500383F31188BFF3A4
:1001E8006F8FBFF34F8FFB6000BFFEE780B582B013
:1001F80000AF7860002000F0E5FC4FF47A7001F061
:1002080055FA002000F0FCFC4FF47A7001F04EFA29
:10021800F0E780B582B000AF7860012000F0D2FC32
:100228004FF47A7001F042FA012000F0E9FC4FF433
:100238007A7001F03BFAF0E780B584B002AF00F0C5
:1002480085F800F0EDFB00F033F800F093FC3B1D5F
:1002580001930123009300234FF400720E490F48C5
:1002680001F0FAF80346012B00D0FEE73B46019364
:100278000123009300234FF400720949094801F053
:10028800EBF80346012B00D0FEE7002000F09AFCB3
:1002980001F0A4FAFEE700BF8C310008F501000860
:1002A800943100081B02000880B400AFFEE700008C
:1002B80080B586B000AF082000F0FEF81E4B7B61C9
:1002C8001E4B3B611E4BFB601E4BBB601E4B7B6095
:1002D8007B691B6823F040727B691A607B681B6826
:1002E80023F4E0127B681A607B681B6843F4E01211
:1002F8007B681A60FB681B6823F44012FB681A606D
:10030800FB681B6823F47822FB681A60FB681B688B
:1003180043F40022FB681A60BB681B6843F40002C0
:10032800BB681A603B691B6843F001023B691A60AD
:1003380000BF1837BD4680BD042001400820014099
:1003480038200140042301400C20014080B485B0CE
:1003580000AF554BFB60554BBB60554B7B60FB6852
:100368001B6843F48032FB681A6000BFFB681B6897
:100378005B0C03F00103002BF8D04E4B3B603B684D
:100388001B6843F005023B681A603B681B6843F42E
:1003980080723B681A603B681B6843F400723B68D4
:1003A8001A603B681B6843F480623B681A60BB684C
:1003B8001B6823F03F02BB681A60BB681B6843F0E8
:1003C8000802BB681A60BB681B6823F4FF4323F06C
:1003D8004003BA681360BB681B6843F4A842BB6853
:1003E8001A60BB681B6823F44032BB681A60BB689C
:1003F8001A68BB681A60BB681B6823F07062BB6828
:100408001A60BB681B6843F0E062BB681A60BB688F
:100418001B6843F48002BB681A60FB681B6843F0E2
:100428008072FB681A6000BFFB681B685B0E03F0F4
:100438000103002BF8D07B681B6823F0F0027B686F
:100448001A607B681B6823F4E0527B681A607B683B
:100458001B6843F4A0527B681A607B681B6823F40E
:1004680060427B681A607B681B6843F400427B68C3
:100478001A607B681B6823F003027B681A607B683C
:100488001B6843F002027B681A6000BF7B681B6828
:100498009B0803F00303022BF8D100BF00BF1437F9
:1004A800BD465DF8047B70470038024004380240BE
:1004B80008380240003C024080B485B000AF0346D3
:1004C800FB71084BFB60FB681B68FA79012101FA94
:1004D80002F21A43FB681A6000BF1437BD465DF884
:1004E800047B70474438024080B483B000AF786022
:1004F8000B46FB70FB78012B62D17B68644A934200
:1005080006D1644B1B6B634A43F001031363B9E0E4
:100518007B68614A934206D15E4B1B6B5D4A43F090
:1005280002031363AEE07B685C4A934206D1594BE1
:100538001B6B584A43F004031363A3E07B68584AD3
:10054800934206D1534B1B6B524A43F00803136383
:1005580098E07B68534A934206D14E4B1B6B4D4A39
:1005680043F0100313638DE07B684F4A934206D132
:10057800484B1B6B474A43F02003136382E07B68B8
:100588004A4A934206D1434B1B6B424A43F040030D
:10059800136377E07B68464A934206D13D4B1B6B59
:1005A8003C4A43F0800313636CE07B68414A934202
:1005B80068D1384B1B6B374A43F48073136361E08F
:1005C8007B68334A934206D1324B1B6B314A23F086
:1005D8000103136356E07B682F4A934206D12D4BE3
:1005E8001B6B2C4A23F0020313634BE07B682B4AF6
:1005F800934206D1274B1B6B264A23F0040313634F
:1006080040E07B68264A934206D1224B1B6B214A65
:1006180023F00803136335E07B68224A934206D12E
:100628001C4B1B6B1B4A23F0100313632AE07B68E7
:100638001D4A934206D1174B1B6B164A23F0200321
:1006480013631FE07B68194A934206D1114B1B6B59
:10065800104A23F04003136314E07B68144A934262
:1006680006D10C4B1B6B0B4A23F08003136309E084
:100678007B68104A934205D1064B1B6B054A23F44D
:100688008073136300BF0C37BD465DF8047B704769
:100698000000024000380240000402400008024006
:1006A800000C0240001002400014024000180240F2
:1006B800001C02400020024080B483B000AF786084
:1006C8000B467B8013467B707B78002B09D07B68B8
:1006D8005B697A88012101FA02F21A437B685A6140
:1006E80009E07B685B697A88012101FA02F2D2434A
:1006F8001A407B685A6100BF0C37BD465DF8047B21
:100708007047000080B586B000AF78607B681B68D2
:1007180001211846FFF7E8FE7B685B79032B20D898
:100728007B685B791A467B681B795B0002FA03F3E6
:100738003B617B681B681A687B681B795B00032137
:1007480001FA03F3DB4319467B681B680A401A6009
:100758007B681B6819687B681B683A690A431A60DA
:10076800B7E07B685B79042B17D1474BDB687A6865
:100778001279114601228A401146434A0B43D3603D
:10078800414B9B687A681279114601228A40D2430C
:1007980011463D4A0B40936035E07B685B79052B39
:1007A80017D1394B9B687A681279114601228A4021
:1007B8001146354A0B439360334BDB687A681279EC
:1007C800114601228A40D24311462F4A0B40D3607A
:1007D80019E07B685B79062B15D12B4BDB687A68AF
:1007E8001279114601228A401146274A0B43D360E9
:1007F800254B9B687A681279114601228A40114676
:10080800214A0B4393607B681B799B08FB757B68C7
:100818001B7903F00303BB757B681B681B4A934273
:100828003AD07B681B681A4A93422BD07B681B68B6
:10083800184A934224D07B681B68154A93421DD0FE
:100848007B681B68114A934216D07B681B68104A64
:1008580093420FD07B681B680C4A934208D07B6890
:100868001B680B4A934201D1072316E0002314E0CA
:10087800062312E0052310E004230EE003230CE016
:1008880002230AE0012308E0003C01400000024086
:10089800000402400008024000237B755D4B5B6C3E
:1008A8005C4A43F4804353647A7DBB7D9B0002FA23
:1008B80003F1594AFB7D023342F82310574B1B685A
:1008C8007A681279114601228A401146534A0B432D
:1008D800136000233B617B689B791A467B681B7910
:1008E8005B0002FA03F33B617B681B689A687B68CC
:1008F8001B795B00032101FA03F3DB4319467B688C
:100908001B680A409A607B681B6899687B681B684B
:100918003A690A439A6000233B617B68DB791A468F
:100928007B681B795B0002FA03F33B617B681B68F9
:10093800DA687B681B795B00032101FA03F3DB4368
:1009480019467B681B680A40DA607B681B68D968AF
:100958007B681B683A690A43DA6000233B617B685D
:100968001B7A1A467B681B7902FA03F33B617B68A2
:100978001B685A687B681B79194601238B40DB4347
:1009880019467B681B680A405A607B681B6859686F
:100998007B681B683A690A435A6000233B617B689D
:1009A8005B79022B32D17B681B79DB08DBB2FB60F9
:1009B8007B681B7903F00703BB607B681B68FA68D8
:1009C800083253F82220BB689B000F2101FA03F379
:1009D800DB4319467B681B681140FA68083243F804
:1009E80022107B681B68FA68083253F822207B685B
:1009F8005B7A1946BB689B0001FA03F319467B68CA
:100A08001B681143FA68083243F8221000BF1837F0
:100A1800BD4680BD0038024000380140003C01401E
:100A280080B487B000AF2C4B1B6B2B4A43F00203FA
:100A380013632A4B7B612A4B3B617B691B6823F458
:100A480070427B691A607B691B6843F420427B69AA
:100A58001A603B691B6823F07F423B691A603B6957
:100A68001B6843F0EE423B691A601B4B5B6C1A4AE9
:100A780043F0100353641B4BFB601B4BBB60FB68CC
:100A880042F22E221A60BB681B6823F48062BB689E
:100A98001A60BB681B6823F48052BB681A60BB6885
:100AA8001B6843F4005343F00C03BA681360BB6837
:100AB8001B6843F02002BB681A600C4B7B607B68A4
:100AC8001B6843F020027B681A6000BF1C37BD46D4
:100AD8005DF8047B704700BF003802400004024004
:100AE80020040240081001400C10014004E100E01D
:100AF80080B582B000AF174B7B607B681868164BD7
:100B08001B685A1C14490A60C1B2144AD1541449CA
:100B1800124802F07CFA0346002B08D00E4B002244
:100B28001A60142200210D4802F069FA0EE00D49FE
:100B38000A4802F06CFA0346002B07D0064B002245
:100B48001A6014220021054802F059FA00BF08373C
:100B5800BD4680BD04100140380400202404002054
:100B68009C310008A431000880B500AFFFF7C0FF32
:100B780000BF80BD80B584B000AF104B1B6B0F4A1F
:100B880043F0010313630E4B7B6001237B72032345
:100B9800BB720023FB7200233B7306233B723B1D91
:100BA8001846FFF7AFFD07233B723B1D1846FFF7BA
:100BB800A9FD00BF1037BD4680BD00BF0038024008
:100BC8000000024080B582B000AF0346FB71FB799C
:100BD800002B02D0012B06D00BE00122062107488A
:100BE800FFF76AFD05E0012207210448FFF764FDCD
:100BF80000BF00BF0837BD4680BD00BF00000240EF
:100C080080B582B000AF0346FB71FB79002B02D0A0
:100C1800012B06D00BE0002206210748FFF74CFD08
:100C280005E0002207210448FFF746FD00BF00BF8A
:100C38000837BD4680BD00BF0000024080B483B0C5
:100C480000AF78607B6803F108027B685A607B68B4
:100C58004FF0FF329A607B6803F108027B68DA6024
:100C68007B6803F108027B681A617B6800225A617D
:100C78007B6800229A617B6800221A6000BF0C37EB
:100C8800BD465DF8047B704780B483B000AF7860E0
:100C98007B6800221A6100BF0C37BD465DF8047BF3
:100CA800704780B485B000AF786039603B681B68D6
:100CB800BB60BB68B3F1FF3F03D17B681B69FB6076
:100CC8000CE07B680833FB6002E0FB685B68FB6054
:100CD800FB685B681B68BA689A42F6D2FB685A6878
:100CE8003B685A603B685B683A689A603B68FA6898
:100CF8009A60FB683A685A603B687A681A617B6850
:100D08001B685A1C7B681A6000BF1437BD465DF823
:100D1800047B704780B485B000AF78607B681B693E
:100D2800FB607B685B687A6892689A607B689B68FE
:100D38007A6852685A60FB685B687A689A4203D19D
:100D48007B689A68FB685A607B6800221A61FB68B6
:100D58001B685A1EFB681A60FB681B681846143724
:100D6800BD465DF8047B704780B584B000AF7860FD
:100D780039600123FB607B68BB60BB68002B5DD0DA
:100D8800BB68DB6C002B59D0BB681A6DBB68DB6C89
:100D98000021A3FB0223002B00D001210B46002BCE
:100DA8004CD101F0B3FEBB681A68BB68DB6CB9684C
:100DB800096D01FB03F31A44BB689A60BB68002203
:100DC8009A64BB681A68BB685A60BB681A68BB68D3
:100DD800DB6C013BB968096D01FB03F31A44BB687E
:100DE800DA60BB68FF2283F85420BB68FF2283F8CF
:100DF80055203B68002B14D1BB681B69002B1AD007
:100E0800BB681033184601F017F80346002B12D0C0
:100E18000E4B4FF080521A60BFF34F8FBFF36F8FA6
:100E280009E0BB6810331846FFF708FFBB682C338E
:100E38001846FFF703FF01F083FE01E00023FB6083
:100E4800FB6818461037BD4680BD00BF04ED00E0C2
:100E580080B588B002AFF860B9607A603B60002363
:100E68007B61FB68002B1ED03B68002B1BD07B6886
:100E7800002B02D0BB68002B15D07B68002B02D159
:100E8800BB68002B0FD13B687B617B69012283F82B
:100E9800562097F820207B69009313467A68B96832
:100EA800F86800F005F87B6918461837BD4680BD1C
:100EB80080B584B000AFF860B9607A60FB70BB6839
:100EC800002B03D1BB69BA691A6002E0BB697A6872
:100ED8001A60BB69FA68DA64BB69BA681A650121E5
:100EE800B869FFF741FFBB6900229A6500BF103758
:100EF800BD4680BD80B58AB000AFF860B9607A6041
:100F080000237B62FB683B6201F000FE3B6A9B6C3E
:100F1800FB61FB69002B1FD0B968386A00F0F6F84E
:100F2800FB695A1E3B6A9A643B6A1B69002B0FD007
:100F38003B6A1033184600F07FFF0346002B07D0AA
:100F48003C4B4FF080521A60BFF34F8FBFF36F8F47
:100F580001F0F6FD012369E07B68002B03D101F065
:100F6800EFFD002362E07B6A002B06D107F1140332
:100F7800184601F02DF801237B6201F0E1FD00F035
:100F880061FC01F0C3FD3B6A93F854305BB2B3F1E6
:100F9800FF3F03D13B6A002283F854203B6A93F851
:100FA80055305BB2B3F1FF3F03D13B6A002283F8AF
:100FB800552001F0C5FD3A1D07F1140311461846E6
:100FC80001F01CF80346002B23D1386A00F023F9FE
:100FD8000346002B17D03B6A2C337A681146184613
:100FE80000F0DCFE386A00F0B7F800F039FC034680
:100FF800002B89D10F4B4FF080521A60BFF34F8FEF
:10100800BFF36F8F80E7386A00F0A6F800F028FC7D
:101018007AE7386A00F0A0F800F022FC386A00F09D
:10102800FAF80346002B3FF46FAF00231846283721
:10103800BD4680BD04ED00E080B586B000AFF86025
:10104800B9607A6000237B61FB689B6C3B61FB683D
:101058001B6D002B0DD1FB681B68002B4DD1FB6865
:101068009B68184601F0F0F87861FB6800229A60E6
:1010780043E07B68002B19D1FB685868FB681B6D3F
:101088001A46B96802F000F8FB685A68FB681B6DDD
:101098001A44FB685A60FB685A68FB689B689A4266
:1010A8002BD3FB681A68FB685A6026E0FB68D8688F
:1010B800FB681B6D1A46B96801F0E6FFFB68DA6841
:1010C800FB681B6D5B421A44FB68DA60FB68DA68F0
:1010D800FB681B689A4207D2FB689A68FB681B6D1D
:1010E8005B421A44FB68DA607B68022B05D13B69D6
:1010F800002B02D03B69013B3B613B695A1CFB68F2
:101108009A647B6918461837BD4680BD80B582B0A1
:1011180000AF786039607B681B6D002B18D07B6846
:10112800DA687B681B6D1A447B68DA607B68DA686A
:101138007B689B689A4203D37B681A687B68DA608D
:101148007B68D9687B681B6D1A46386801F09CFF7C
:1011580000BF0837BD4680BD80B584B000AF786059
:1011680001F0D4FC7B6893F85530FB731EE07B6874
:101178009B6D002B08D0786800F097F80346002B89
:1011880010D000F095FF0DE07B68DB6A002B12D0D1
:101198007B682C33184600F04FFE0346002B01D025
:1011A80000F086FFFB7B013BDBB2FB7397F90F3046
:1011B800002BDCDC00E000BF7B68FF2283F85520B1
:1011C80001F0BEFC01F0A2FC7B6893F85430BB73BD
:1011D80011E07B681B69002B12D07B68103318461E
:1011E80000F02AFE0346002B01D000F061FFBB7B14
:1011F800013BDBB2BB7397F90E30002BE9DC00E052
:1012080000BF7B68FF2283F8542001F099FC00BFDF
:101218001037BD4680BD80B584B000AF786001F05E
:1012280075FC7B689B6C002B02D10123FB6001E0FD
:101238000023FB6001F084FCFB6818461037BD46AC
:1012480080BD80B586B000AFF860B9607A60FB6891
:101258007B6101F05BFC7B6993F854305BB2B3F1BE
:10126800FF3F03D17B69002283F854207B6993F800
:1012780055305BB2B3F1FF3F03D17B69002283F89D
:10128800552001F05DFC7B699B6C002B06D17B69C6
:101298002C337A68B968184600F096FD7869FFF72C
:1012A8005BFF00BF1837BD4680BD80B586B000AF74
:1012B80078607B689B6D3B6100237B613B699A6C1E
:1012C8003B69DB6C9A422DD23B6993F85530FB732E
:1012D8003B1D002219463869FFF7AEFE786197F981
:1012E8000F30B3F1FF3F0ED13B69DB6A002B19D0F9
:1012F8003B692C33184600F09FFD0346002B11D0A4
:1013080001237B610EE000F0B5FBB86097F90F3060
:10131800BA689A4206D9FB7B0133DBB25AB23B6901
:1013280083F855207B6918461837BD4680BD80B5BF
:101338008AB004AFF860B9607A603B60BB6A002B82
:101348001FD07B6A002B1CD0BB6A7B615422002112
:10135800786901F054FE7B697A6A1A637B69022214
:1013680083F85120002303937B690293FB6A01935E
:101378003B6A00933B687A68B968F86800F08FF8B0
:1013880001E000237B617B6918461837BD4680BDA4
:1013980080B58AB004AFF860B9607A603B6000231A
:1013A8003B6107F110030393BB6A02937B6A0193C5
:1013B8003B6A00933B687A68B968F868FFF7B7FF3B
:1013C80078617B69002B02D0786900F0D9F83B6915
:1013D80018461837BD4680BD80B58AB004AFF8609E
:1013E800B9607A603B607B689B00184601F03EFC60
:1013F80038613B69002B13D0542001F037FC786129
:101408007B69002B08D054220021786901F0F7FD90
:101418007B693A691A6305E0386901F0D9FC01E093
:1014280000237B617B69002B11D07B69002283F844
:101438005120002303937B6902937B6A01933B6AE3
:1014480000933B687A68B968F86800F028F87B6907
:1014580018461837BD4680BD80B588B002AFF86021
:10146800B9607A603B607B6A01933B6A00933B6892
:101478007A68B968F868FFF7AFFF38613B69002BF5
:1014880005D0386900F07CF801237B6102E04FF059
:10149800FF337B617B6918461837BD4680BD80B530
:1014A80086B000AFF860B9607A603B60BB6A186BC1
:1014B8007B689B001A46A52101F0A1FDBB6A1A6B47
:1014C8007B6803F18043013B9B0013443B613B690C
:1014D80023F007033B61BB68002B1ED000237B6110
:1014E80012E0BA687B6913441978BA6A7B691344B5
:1014F80034330A461A70BA687B6913441B78002B88
:1015080006D07B6901337B617B69092BE9D900E04F
:1015180000BFBB6A002283F83D203B6A042B01D937
:1015280004233B62BB6A3A6ADA62BB6A3A6A1A64A3
:10153800BB6A04331846FFF7A7FBBB6A1833184683
:10154800FFF7A2FBBB6ABA6A1A613B6AC3F10502DC
:10155800BB6A9A61BB6ABA6A5A623A68F9683869BA
:1015680001F026FA0246BB6A1A607B6A002B02D099
:101578007B6ABA6A1A6000BF1837BD4680BD000092
:1015880080B584B000AF786001F0C0FA404B1B68AA
:1015980001333F4A13603F4B1B68002B09D13D4A7A
:1015A8007B6813603A4B1B68012B10D100F0A4FD37
:1015B8000DE0394B1B68002B09D1364B1B68DA6AE2
:1015C8007B68DB6A9A4202D8324A7B681360334BE5
:1015D8001B680133314A13607B68DA6A304B1B6839
:1015E8009A4203D97B68DB6A2D4A13607B68DA6A02
:1015F8002C491346DB009B1A9B000B4404331B68E1
:10160800FB607B68FA689A60FB689A687B68DA60B6
:10161800FB689B687A6804325A607B681A1DFB680D
:101628009A607B68DA6A1346DB009B1A9B001D4AA6
:101638001A447B685A617B68DA6A1A491346DB00E8
:101648009B1A9B000B441B687A68D26A591C154880
:101658001346DB009B1A9B000344196001F070FAE3
:101668000D4B1B68002B0ED00A4B1B68DA6A7B688F
:10167800DB6A9A4207D20C4B4FF080521A60BFF3D4
:101688004F8FBFF36F8F00BF1037BD4680BD00BFBF
:10169800640500203C04002070050020800500201F
:1016A8006C0500204004002004ED00E080B584B003
:1016B80000AF78600023FB607B68002B08D000F047
:1016C800C1F80021786800F035FE00F0C9F8F8602C
:1016D800FB68002B07D1064B4FF080521A60BFF30E
:1016E8004F8FBFF36F8F00BF1037BD4680BD00BF5F
:1016F80004ED00E080B58EB004AF01237B6207F1F2
:101708000C0300221A605A601A810023BB6100236F
:10171800FB6113E02E4AFB691344197807F10C02A8
:10172800FB6913440A461A7007F10C02FB6913445B
:101738001B78002B06D0FB690133FB61FB69082B82
:10174800E8D900E000BF07F10C02FB69134400224E
:101758001A7000233B6230E01E4BBB610023BB6064
:1017680000237B603A46391D07F10803184600F04C
:1017780057FE38687B68BA6807F10C01029201933A
:101788000023009300230246B869FFF701FE0246D2
:1017980011493B6A41F823200F4A3B6A52F823302B
:1017A800002B02D001237B6201E000237B627B6A6D
:1017B800012B06D13B6A01333B623B6A002BCBDD30
:1017C80000E000BF7B6A18462837BD4680BD00BFD1
:1017D800B4310008D12000088805002080B582B007
:1017E80000AFFFF787FF78607B68012B02D100F01C
:1017F8004BFE78607B68012B15D14FF0500383F3C3
:101808001188BFF36F8FBFF34F8F3B6000BF094B49
:101818004FF0FF321A60084B01221A60074B002272
:101828001A6001F03BF9064B1B6800BF0837BD463C
:1018380080BD00BF840500207005002068050020D9
:10184800C431000880B400AF044B1B680133034A5D
:10185800136000BFBD465DF8047B70478C0500200F
:1018680080B588B000AF0023FB610023BB6101F0A5
:101878004DF900233B616E4B1B68013B6C4A1360BA
:101888006B4B1B68002B40F0CB806A4B1B68002B0E
:1018980000F0C6808FE0684BDB68DB68FB61FB69A2
:1018A8009B6AFB60FB69DB69FA69126A9A60FB69EB
:1018B8001B6AFA69D2695A60FB685A68FB6918336F
:1018C8009A4203D1FB691A6AFB685A60FB690022D5
:1018D8009A62FB681B685A1EFB681A60FB695B69A1
:1018E800BB60FB699B68FA69D2689A60FB69DB6830
:1018F800FA6992685A60BB685A68FB6904339A426D
:1019080003D1FB69DA68BB685A60FB6900225A6137
:10191800BB681B685A1EBB681A60FB69DA6A474BCA
:101928001B689A4203D9FB69DB6A444A1360FB6966
:10193800DA6A43491346DB009B1A9B000B440433C5
:101948001B687B60FB697A689A607B689A68FB69A8
:10195800DA607B689B68FA6904325A60FB691A1D71
:101968007B689A60FB69DA6A1346DB009B1A9B0066
:10197800334A1A44FB695A61FB69DA6A30491346EB
:10198800DB009B1A9B000B441B68FA69D26A591C3E
:101998002B481346DB009B1A9B0003441960FB6924
:1019A800DA6A284B1B68DB6A9A4204D9264A3B69E3
:1019B800012142F82310204B1B68002B7FF46BAFEA
:1019C800FB69002B01D000F023FC204B1B687B61D6
:1019D8007B69002B12D000F059F80346002B04D085
:1019E800194A3B69012142F823107B69013B7B615D
:1019F8007B69002BEFD1154B00221A60124A3B6914
:101A080052F82330002B0BD00123BB610D4B1B6810
:101A18000F4B4FF080521A60BFF34F8FBFF36F8F99
:101A280001F08EF8BB6918462037BD4680BD00BF5F
:101A38008C050020640500200C0500206C050020A2
:101A4800400400203C040020780500207405002094
:101A580004ED00E080B483B000AF054B1B687B60E9
:101A68007B6818460C37BD465DF8047B704700BF9D
:101A78006805002080B400AF034B1B681846BD46BC
:101A88005DF8047B704700BF6405002080B588B00E
:101A980000AF0023FB61774B1B68002B40F0DF8011
:101AA800754B1B680133BB61734ABB691360BB6923
:101AB800002B10D1714B1B687B61714B1B686F4AFF
:101AC80013606F4A7B6913606E4B1B6801336D4A64
:101AD800136000F09DFB6C4B1B68BA699A42C0F01A
:101AE800A980664B1B681B68002B04D1664B4FF01E
:101AF800FF321A609EE0614B1B68DB68DB683B6164
:101B08003B695B68FB60BA69FB689A4203D25E4A2C
:101B1800FB6813608EE03B695B69BB603B699B684F
:101B28003A69D2689A603B69DB683A6992685A6098
:101B3800BB685A683B6904339A4203D13B69DA6847
:101B4800BB685A603B6900225A61BB681B685A1E11
:101B5800BB681A603B699B6A002B1ED03B699B6A75
:101B68007B603B69DB693A69126A9A603B691B6A68
:101B78003A69D2695A607B685A683B6918339A4255
:101B880003D13B691A6A7B685A603B6900229A62F2
:101B98007B681B685A1E7B681A603B69DA6A3B4B94
:101BA8001B689A4203D93B69DB6A384A13603B6970
:101BB800DA6A37491346DB009B1A9B000B4404334F
:101BC8001B683B603B693A689A603B689A683B6966
:101BD800DA603B689B683A6904325A603B691A1DAF
:101BE8003B689A603B69DA6A1346DB009B1A9B00E4
:101BF800274A1A443B695A613B69DA6A2449134601
:101C0800DB009B1A9B000B441B683A69D26A591C7B
:101C18001F481346DB009B1A9B00034419603B696D
:101C2800DA6A1C4B1B68DB6A9A427FF65AAF0123BB
:101C3800FB6156E7174B1B68DA6A15491346DB0048
:101C48009B1A9B000B441B68012B01D90123FB61E4
:101C5800114B1B68002B07D00123FB6104E00F4BDD
:101C68001B6801330D4A1360FB6918462037BD46CF
:101C780080BD00BF8C0500206805002004050020F9
:101C8800080500207C050020840500206C05002044
:101C9800400400203C040020780500207405002042
:101CA80080B586B000AF384B1B68002B03D0374B8C
:101CB80001221A6064E0354B00221A60344B1B681D
:101CC8001B6B3B614FF0A533FB60314B1B681A68F7
:101CD8002F4B1B681B6B9A4216D93B691B68FA6825
:101CE8009A4211D13B6904331B68FA689A420BD1B6
:101CF8003B6908331B68FA689A4205D13B690C3383
:101D08001B68FA689A4209D0214B1B683433BB60C0
:101D18001F4B1B68B9681846FEF758FA1D4B1B681D
:101D28007B6102E07B69013B7B611B497A69134651
:101D3800DB009B1A9B000B441B68002BF2D07A69CE
:101D48001346DB009B1A9B00134A13447B607B6895
:101D58005B685A687B685A607B685A687B68083396
:101D68009A4203D17B68DA687B685A607B685B6853
:101D7800DB68074A1360074A7B691360044B1B68DA
:101D880000BF1837BD4680BD8C05002078050020AF
:101D98003C0400206C0500204004002080B582B07F
:101DA80000AF78603960074B1B68183319467868AC
:101DB800FEF777FF0121386800F0BCFA00BF08374A
:101DC800BD4680BD3C04002080B586B000AFF860F9
:101DD800B9607A60FB685B687B61164B1B687A693F
:101DE800DA61144B1B687A6992681A62114B1A6897
:101DF8007B699B6818325A600E4B1B6803F1180206
:101E08007B699A600B4B1B68FA689A62FB681B68CF
:101E18005A1CFB681A607B68002B02D04FF0FF3316
:101E2800BB607968B86800F085FA00BF1837BD460E
:101E380080BD00BF3C04002080B489B000AF78604A
:101E48007B68DB68DB68BB61BB699B6A7B61BB69DC
:101E5800DB69BA69126A9A60BB691B6ABA69D26996
:101E68005A607B695A68BB6918339A4203D1BB69C7
:101E78001A6A7B695A60BB6900229A627B691B688F
:101E88005A1E7B691A604C4B1B68002B61D1BB69D9
:101E98005B69FB60BB699B68BA69D2689A60BB6979
:101EA800DB68BA6992685A60FB685A68BB69043390
:101EB8009A4203D1BB69DA68FB685A60BB690022A1
:101EC8005A61FB681B685A1EFB681A60BB69DA6AAC
:101ED8003A4B1B689A4203D9BB69DB6A374A1360DD
:101EE800BB69DA6A36491346DB009B1A9B000B4430
:101EF80004331B68BB60BB69BA689A60BB689A68A0
:101F0800BB69DA60BB689B68BA6904325A60BB690E
:101F18001A1DBB689A60BB69DA6A1346DB009B1A14
:101F28009B00274A1A44BB695A61BB69DA6A24498B
:101F38001346DB009B1A9B000B441B68BA69D26AE4
:101F4800591C1F481346DB009B1A9B000344196069
:101F58001BE01C4B5B683B61BB693A69DA613B6912
:101F68009A68BB691A623B699B68BA6918325A60F9
:101F7800BB6903F118023B699A60BB69114A9A620E
:101F8800104B1B6801330F4A1360BB69DA6A0E4BAA
:101F98001B68DB6A9A4205D90123FB610B4B0122BE
:101FA8001A6001E00023FB61FB6918462437BD462F
:101FB8005DF8047B704700BF8C0500206C0500208D
:101FC800400400200C0500203C0400207805002077
:101FD80080B483B000AF7860064B1A687B681A60DB
:101FE800054B1A687B685A6000BF0C37BD465DF820
:101FF800047B70477C0500206805002080B586B00A
:1020080000AF7860396000F081FD264B1B683B61AA
:102018007B685B683A69D31AFB60234B1B6893F8AB
:102028005230002B07D0204B1B68002283F8522027
:1020380001237B612EE03B681B68B3F1FF3F02D1AF
:1020480000237B6126E07B681A68184B1B689A425C
:102058000AD07B685B683A699A4205D301237B61A1
:102068003B6800221A6015E03B681B68FA689A42D0
:102078000BD23B681A68FB68D21A3B681A6078680A
:10208800FFF7A6FF00237B6104E03B6800221A608B
:1020980001237B6100F054FD7B6918461837BD4663
:1020A80080BD00BF680500203C0400207C0500209E
:1020B80080B400AF034B01221A6000BFBD465DF833
:1020C800047B70477805002080B582B000AF786047
:1020D80000F052F8064B1B68012BF9D9054B4FF05D
:1020E80080521A60BFF34F8FBFF36F8FF0E700BFC6
:1020F8004004002004ED00E080B582B000AF00236A
:102108007B600CE07A681346DB009B1A9B00124A3E
:1021180013441846FEF792FD7B6801337B607B68A9
:10212800042BEFD90D48FEF789FD0D48FEF786FD13
:102138000C48FEF783FD0C48FEF780FD0B48FEF7C0
:102148007DFD0B4B054A1A600A4B054A1A6000BF11
:102158000837BD4680BD00BF40040020CC040020E5
:10216800E80400200C050020280500204805002070
:10217800040500200805002080B582B000AF19E0F2
:1021880000F0C4FC104BDB68DB687B607B680433C1
:102198001846FEF7BFFD0D4B1B68013B0B4A136049
:1021A8000B4B1B68013B0A4A136000F0C9FC7868B6
:1021B80000F010F8064B1B68002BE1D100BF00BFF0
:1021C8000837BD4680BD00BF2805002064050020F3
:1021D8004405002080B582B000AF78607B6893F832
:1021E8005130002B08D17B681B6B184600F0F0FDBE
:1021F800786800F0EDFD07E07B6893F85130012B1B
:1022080002D1786800F0E4FD00BF0837BD4680BD04
:1022180080B400AF0A4B1B681B68002B04D1094B24
:102228004FF0FF321A6005E0054B1B68DB681B683E
:10223800044A136000BFBD465DF8047B704700BFC9
:10224800040500208405002080B586B000AF7860C2
:102258007B683B6100237B617B68002B61D03B6915
:102268005B6C5A1E3B695A643B69DA6A3B691B6CB2
:102278009A4256D03B695B6C002B52D13B690433C0
:102288001846FEF747FD3B691A6C3B69DA623B6901
:10229800DB6AC3F105023B699A613B69DA6A234B41
:1022A8001B689A4203D93B69DB6A204A13603B6981
:1022B800DA6A1F491346DB009B1A9B000B44043360
:1022C8001B68FB603B69FA689A60FB689A683B691F
:1022D800DA60FB689B683A6904325A603B691A1DE8
:1022E800FB689A603B69DA6A1346DB009B1A9B001D
:1022F8000F4A1A443B695A613B69DA6A0C4913462A
:10230800DB009B1A9B000B441B683A69D26A591C74
:1023180007481346DB009B1A9B00034419600123FE
:102328007B617B6918461837BD4680BD6C05002067
:102338004004002080B588B000AF78603960324B27
:102348001B68FB61314B1B68BB61314B1B687B61B0
:10235800304B1B68002283F852202E4B1B68043335
:102368001846FEF7D7FC7B68B3F1FF3F24D13B68E2
:10237800002B21D0284B5B683B61264B1B683A69D0
:102388009A60244B1B683A699268DA60214B1A6894
:102398003B699B6804325A601E4B1B681A1D3B69D7
:1023A8009A601C4B1B681C4A5A611B4B1B68013303
:1023B800194A136000BF22E0FA697B681344FB6086
:1023C800144B1B68FA685A60FA68FB699A4207D28C
:1023D800104B1B68043319467869FEF762FC0EE05F
:1023E8000C4B1B6804331946B869FEF75AFC0B4BB3
:1023F8001B68FA689A4202D2084AFB68136000BF59
:102408002037BD4680BD00BF6805002004050020B8
:10241800080500203C040020480500208405002011
:1024280080B485B000AFF860B9607A60FB68074A8D
:102438001A60BB68064A1A607B6880221A6000BF6F
:102448001437BD465DF8047B704700BF9005002037
:10245800E405002080B485B000AFF860B9607A6008
:10246800FB68074A1A60BB68064A1A607B688022C4
:102478001A6000BF1437BD465DF8047B704700BF83
:10248800E40700203808002080B588B004AF002396
:10249800FB6000F059FA154B1B68002B20D0002375
:1024A800BB6000237B603A46391D07F108031846D4
:1024B800FFF7D0FF39687B68BA680292019304235A
:1024C800009300230A460A490A48FEF761FF0346BB
:1024D800094A1360084B1B68002B01D00123FB60DD
:1024E800FB6818461037BD4680BD00BF780A00203B
:1024F800BC310008A92500087C0A002080B584B0FA
:1025080000AFF860B9607A6008E0FB689B69BA6858
:102518001344BB60FB681B6AF8689847FB689A69B4
:10252800BB68D118BB687A68F86800F0DDF8034624
:10253800002BEAD100BF00BF1037BD4680BD0000A8
:1025480080B584B000AF78603960144B1B68DB68D5
:10255800DB68FB60FB6804331846FEF7DBFBFB68AF
:1025680093F8243003F00403002B05D03A68796807
:10257800F868FFF7C3FF08E0FB6893F8243023F0FE
:102588000103DAB2FB6883F82420FB681B6AF86849
:10259800984700BF1037BD4680BD00BF700A0020B5
:1025A80080B584B000AF786007F10803184600F0E2
:1025B80057F8F860BB681946F86800F003F800F0AF
:1025C800D5F8F1E780B584B000AF78603960FFF7DF
:1025D80039F907F10803184600F066F8F860BB6897
:1025E800002B30D13B68002B0AD17A68FB689A42ED
:1025F80006D8FFF735F9F9687868FFF7A1FF24E0F6
:102608003B68002B08D0134B1B681B68002B01D1BB
:10261800012300E000233B600F4B18687A68FB68D1
:10262800D31A3A681946FEF70CFEFFF719F9034664
:10263800002B0AD1094B4FF080521A60BFF34F8F1D
:10264800BFF36F8F01E0FFF70BF900BF1037BD46EE
:1026580080BD00BF740A0020780A002004ED00E065
:1026680080B485B000AF78600E4B1B681B68002BE8
:1026780001D1012200E000227B681A607B681B6898
:10268800002B05D1074B1B68DB681B68FB6001E06A
:102698000023FB60FB6818461437BD465DF8047BD1
:1026A800704700BF700A002080B584B000AF786022
:1026B800FFF7D0F9F8600B4B1B68FA689A4205D20D
:1026C80000F01CF97B6801221A6002E07B68002296
:1026D8001A60044AFB681360FB6818461037BD4649
:1026E80080BD00BF800A002080B586B000AFF860CA
:1026F800B9607A603B6000237B61FB68BA685A6006
:10270800FB68FA681A61BA687B689A4212D87A68D4
:102718003B68D21AFB689B699A4202D301237B610A
:102728001BE0104B1A68FB68043319461046FEF785
:10273800B8FA12E07A683B689A4206D2BA683B68EF
:102748009A4202D301237B6107E0074B1A68FB68B2
:10275800043319461046FEF7A4FA7B691846183761
:10276800BD4680BD740A0020700A002080B588B07C
:1027780000AF3B1D00221A605A609A60DA60ABE035
:102788007B68002B0ADA3B1D0433FB61FB691B687D
:10279800FA695068FA699268114698477B68002B75
:1027A800C0F29A80FB68BB61BB69002B00F0948083
:1027B800BB695B69002B04D0BB6904331846FEF77C
:1027C800A9FA3B461846FFF76FFF78617B68013B23
:1027D800082B7ED801A252F823F000BF0928000870
:1027E800092800087128000885280008B128000871
:1027F8000928000809280008712800088528000809
:10280800BB6993F8243043F00103DAB2BB6983F85B
:102818002420BA68BB699B69D118BB687A69B86912
:10282800FFF762FF0346002B55D0BB6993F82430AD
:1028380003F00403002B09D0BA68BB699B691344F1
:102848007A691946B869FFF759FE08E0BB6993F839
:10285800243023F00103DAB2BB6983F82420BB6972
:102868001B6AB869984736E0BB6993F8243023F0AF
:102878000103DAB2BB6983F824202DE0BB6993F821
:10288800243043F00103DAB2BB6983F82420BA6824
:10289800BB699A61BB699A697B69D1187B697A6956
:1028A800B869FFF721FF17E0BB6993F8243003F0FC
:1028B8000203002B03D1B86900F08AFA0CE0BB6967
:1028C80093F8243023F00103DAB2BB6983F824209B
:1028D80002E000BF00E000BF074B1B68391D002263
:1028E8001846FEF707FB0346002B7FF449AF00BFED
:1028F80000BF2037BD4680BD780A002080B582B071
:1029080000AF09E00E4B1B68DB681B683B604FF0AB
:10291800FF313868FFF714FE094B1B681B68002B52
:10292800F0D1074B1B687B60064B1B68044A136099
:10293800044A7B68136000BF0837BD4680BD00BFEE
:10294800700A0020740A002080B582B002AF00F03F
:10295800DDF8104B1B68002B16D10F48FEF76EF9F7
:102968000E48FEF76BF90E4B0B4A1A600D4B0B4ADB
:102978001A60002300930C4B0C4A10210A20FEF722
:1029880067FA0346034A136000F0DAF800BFBD4651
:1029980080BD00BF780A0020380A0020540A0020B1
:1029A800700A0020740A0020240B0020840A0020EA
:1029B80080B485B000AFF860B9607A60FB68043B0A
:1029C800FB60FB684FF080721A60FB68043BFB6099
:1029D800BB6823F00102FB681A60FB68043BFB60DC
:1029E8000C4AFB681A60FB68143BFB607A68FB685A
:1029F8001A60FB68043BFB60FB686FF002021A6018
:102A0800FB68203BFB60FB6818461437BD465DF841
:102A1800047B7047212A000880B483B000AF0023EC
:102A28003B604FF0500383F31188BFF36F8FBFF300
:102A38004F8F7B6000BF00BF3B68002BFCD000BFFE
:102A480000BF0C37BD465DF8047B7047064B19681C
:102A58000868B0E8F04F80F30988BFF36F8F4FF034
:102A6800000080F3118870473C04002000BF00BFBD
:102A780008480068006880F308884FF0000080F379
:102A8800148862B661B6BFF34F8FBFF36F8F00DF54
:102A980000BF000008ED00E000BF00BF80B582B0B5
:102AA80000AF154B1B687B60144B1B68134A43F43B
:102AB8007F031360114B1B68104A43F07F43136078
:102AC8000F4B00221A6000F0A9F80E4B00221A6082
:102AD80000F0C0F80C4B1B680B4A43F040431360EE
:102AE800FFF7C6FFFFF7DCF8FFF796FF002318464D
:102AF8000837BD4680BD00BF08ED00E020ED00E0CE
:102B08001CED00E00004002034EF00E080B483B046
:102B180000AF4FF0500383F31188BFF36F8FBFF3FB
:102B28004F8F7B6000BF054B1B680133034A13605E
:102B380000BF0C37BD465DF8047B704700040020D9
:102B480080B483B000AF0A4B1B68013B084A13608E
:102B5800074B1B68002B05D100237B607B6883F340
:102B6800118800BF00BF0C37BD465DF8047B704775
:102B780000040020EFF30980BFF36F8F144B1A682D
:102B88001EF0100F08BF20ED108A20E9F04F1060EA
:102B98002DE909004FF0500080F31188BFF34F8FE3
:102BA800BFF36F8FFFF77CF84FF0000080F31188B8
:102BB80009BC19680868B0E8F04F1EF0100F08BF8C
:102BC800B0EC108A80F30988BFF36F8F704700005C
:102BD8003C04002000BF00BF80B582B000AF4FF0BA
:102BE800500383F31188BFF36F8FBFF34F8F7B6060
:102BF80000BFFEF74BFF0346002B03D0064B4FF0F8
:102C080080521A6000233B603B6883F3118800BF41
:102C180000BF0837BD4680BD04ED00E080B400AFBA
:102C2800084B00221A60084B00221A60074B084A1A
:102C38001A60044B07221A6000BFBD465DF8047B8A
:102C4800704700BF10E000E018E000E014E000E08A
:102C58003F900200DFF80C00016841F47001016048
:102C68007047000088ED00E000BF00BF80B588B065
:102C780000AF786000237B6100233B617B68002BF9
:102C880022D00823DB437A689A421BD808227B6843
:102C980013447B607B6803F00703002B14D07B6828
:102CA80003F00703C3F10803FB60FB68DB437A68A2
:102CB8009A4204D87A68FB6813447B6004E00023D6
:102CC8007B6001E000237B60FEF7BCFD3B4B1B688B
:102CD800002B01D100F0B6F87B68002B67DB7B681E
:102CE800002B64D0364B1B687A689A425FD8354B04
:102CF800BB61344B1B68FB6104E0FB69BB61FB698A
:102D08001B68FB61FB695B687A689A4203D9FB69B7
:102D18001B68002BF1D1294B1B68FA699A4246D0EF
:102D2800BB691B68082213447B61FB691A68BB698D
:102D38001A60FB695A687B68D21A08235B009A42BA
:102D480013D9FA697B681344BB60FB695A687B68CE
:102D5800D21ABB685A60FB697A685A60BB691A68FC
:102D6800BB681A60BB69BA681A60154B1A68FB69B8
:102D78005B68D31A124A1360114B1A68124B1B680E
:102D88009A4203D20E4B1B680F4A1360FB695B68BB
:102D98003B61FB695B6843F00042FB695A60FB6971
:102DA80000221A60094B1B680133084A1360FEF7BA
:102DB80057FD7B6918462037BD4680BD888B0020AB
:102DC8008C8B0020808B0020908B0020948B00201F
:102DD80080B584B000AF78607B68FB607B68002BAF
:102DE80027D008235B42FA681344FB60FB68BB608A
:102DF800BB685B68002B1CDABB681B68002B18D10A
:102E0800BB685B6823F00042BB685A60FEF71AFD96
:102E1800BB685A68094B1B681344084A1360B868B2
:102E280000F06AF8064B1B680133054A1360FEF789
:102E380017FD00BF1037BD4680BD00BF8C8B00203A
:102E4800988B002080B485B000AF4FF40043BB607E
:102E5800244BFB60FB6803F00703002B0CD0FB68D6
:102E68000733FB60FB6823F00703FB60BA68FB6865
:102E7800D31A1C4A1344BB60FB681B4A13601A4BE5
:102E880000225A60FA68BB6813447B6008227B689A
:102E98009B1A7B607B6823F007037B607B68134A7F
:102EA8001360124B1B6800225A60104B1B680022EB
:102EB8001A60FB683B603B687A68D21A3B685A60C4
:102EC8000A4B1A683B681A603B685B68084A1360DB
:102ED8003B685B68074A136000BF1437BD465DF85E
:102EE800047B7047800B0020808B0020888B00209B
:102EF800908B00208C8B002080B485B000AF786068
:102F0800284BFB6002E0FB681B68FB60FB681B68E2
:102F18007A689A42F7D8FB68BB60FB685B68BA6856
:102F280013447A689A4208D1FB685A687B685B68E0
:102F38001A44FB685A60FB687B607B68BB607B68EF
:102F48005B68BA681A44FB681B689A4218D1FB6828
:102F58001A68154B1B689A420DD07B685A68FB6843
:102F68001B685B681A447B685A60FB681B681A68B0
:102F78007B681A6008E00C4B1A687B681A6003E0EB
:102F8800FB681A687B681A60FA687B689A4202D004
:102F9800FB687A681A6000BF1437BD465DF8047B89
:102FA800704700BF808B0020888B00200D48854625
:102FB800FDF706F90C480D490D4A002302E0D458E4
:102FC800C4500433C4188C42F9D30A4A0A4C00236B
:102FD80001E013600432A242FBD300F02FF8FDF7A2
:102FE8002BF9FEE70000022000040020080400205E
:102FF800D431000808040020348D0020FEE7024484
:103008000346934200D1704703F8011BF9E70A7899
:1030180070B56AB970BD9A4209D10C46054614F8D4
:10302800013F002BF6D015F8016F9E42F7D0013012
:103038000378002BEFD11846ECE7000070B50D4D72
:103048000D4C641BA4100026A64209D10B4D0C4C54
:1030580000F08CF8641BA4100026A64205D170BDB0
:1030680055F8043B98470136EEE755F8043B984776
:103078000136F2E7C8310008C8310008C831000835
:10308800D0310008704770470A44914200F1FF337D
:1030980000D1704710B511F8014B03F8014F914268
:1030A800F9D110BD024B13B1024800F005B87047C2
:1030B80000000000CD300008002301461A461846DB
:1030C80000F014B838B5074D074C641BA4101CB9A0
:1030D800BDE8384000F050B8013C55F82430984716
:1030E800F5E700BFD0310008D43100082DE9F047DA
:1030F800DFF874A00646DAF8000098460F469146B5
:10310800FFF7C0FF164B1C680CB9164C1C606568AD
:10311800DAF800001F2D05DDFFF7B5FF4FF0FF308F
:10312800BDE8F0879EB104EB85010122C1F88890C3
:10313800D4F88831AA401343C4F88831022EC1F864
:10314800088102BFD4F88C311343C4F88C316B1C4E
:103158000235636044F82570FFF795FF0020DFE72C
:10316800A08B0020A48B002004040020F8B500BF29
:10317800F8BC08BC9E467047F8B500BFF8BC08BC50
:043188009E467047A8
:10318C007461736B203100007461736B203200002A
:10319C004C4544204F4E00004C4544204F464600C1
:1031AC004C4544204F4E200049444C450000000043
:0C31BC00546D7220537663000400000084
:0831C800AD300008AD01000864
:0431D0008901000869
:0831D400AAAAAAAA9C8B002004
:0400000508002FB50B
:00000001FF
