:020000040800F2
:10000000000002205D560008AD5600086917000880
:10001000AD560008AD560008AD56000800000000BF
:10002000000000000000000000000000FD5000087B
:10003000AD56000800000000255200088952000853
:10004000AD560008AD560008AD560008AD56000884
:1000500000000000AD560008AD560008AD5600087F
:10006000AD560008AD560008AD560008AD56000864
:10007000AD560008AD560008AD560008AD56000854
:10008000AD560008AD560008AD560008AD56000844
:10009000AD560008AD560008AD560008AD56000834
:1000A000AD560008AD560008AD560008AD56000824
:1000B000AD560008AD560008AD560008AD56000814
:1000C000AD560008AD560008AD560008AD56000804
:1000D000AD56000875210008AD560008AD56000861
:1000E000AD560008AD560008AD560008AD560008E4
:1000F000AD560008AD560008AD560008AD560008D4
:10010000AD560008AD560008AD560008AD560008C3
:10011000AD560008AD560008AD560008AD560008B3
:10012000AD560008AD560008AD560008AD560008A3
:10013000AD560008AD560008AD560008AD56000893
:10014000AD560008AD560008AD560008AD56000883
:10015000AD560008AD560008AD560008AD56000873
:10016000AD560008AD560008AD560008AD56000863
:10017000AD560008AD560008AD560008AD56000853
:08018000AD560008AD56000861
:1001900010B5054C237833B9044B13B10448AFF3C1
:1001A00000800123237010BDD80A00200000000049
:1001B000789F000808B5034B1BB103490348AFF310
:1001C000008008BD00000000DC0A0020789F0008C5
:1001D00081F0004102E000BF83F0004330B54FEAF8
:1001E00041044FEA430594EA050F08BF90EA020F65
:1001F0001FBF54EA000C55EA020C7FEA645C7FEAF8
:10020000655C00F0E2804FEA5454D4EB5555B8BF1A
:100210006D420CDD2C4480EA020281EA030382EA8B
:10022000000083EA010180EA020281EA0303362D1D
:1002300088BF30BD11F0004F4FEA01314FF4801CF0
:100240004CEA113102D0404261EB410113F0004F02
:100250004FEA03334CEA133302D0524263EB4303B9
:1002600094EA050F00F0A780A4F10104D5F1200E57
:100270000DDB02FA0EFC22FA05F2801841F10001B2
:1002800003FA0EF2801843FA05F359410EE0A5F186
:1002900020050EF1200E012A03FA0EFC28BF4CF0B7
:1002A000020C43FA05F3C01851EBE37101F000456D
:1002B00007D54FF0000EDCF1000C7EEB00006EEB7A
:1002C0000101B1F5801F1BD3B1F5001F0CD3490804
:1002D0005FEA30004FEA3C0C04F101044FEA44525B
:1002E00012F5800F80F09A80BCF1004F08BF5FEAE2
:1002F000500C50F1000041EB045141EA050130BDC2
:100300005FEA4C0C404141EB0101013C28BFB1F5D3
:10031000801FE9D291F0000F04BF01460020B1FA1E
:1003200081F308BF2033A3F10B03B3F120020CDAF1
:100330000C3208DD02F1140CC2F10C0201FA0CF0CF
:1003400021FA02F10CE002F11402D8BFC2F1200C34
:1003500001FA02F120FA0CFCDCBF41EA0C019040EA
:10036000E41AA2BF01EB0451294330BD6FEA040433
:100370001F3C1CDA0C340EDC04F11404C4F120021E
:1003800020FA04F001FA02F340EA030021FA04F330
:1003900045EA030130BDC4F10C04C4F1200220FA87
:1003A00002F001FA04F340EA0300294630BD21FAC5
:1003B00004F0294630BD94F0000F83F4801306BF8B
:1003C00081F480110134013D4EE77FEA645C18BF7F
:1003D0007FEA655C29D094EA050F08BF90EA020F16
:1003E00005D054EA000C04BF1946104630BD91EA0E
:1003F000030F1EBF0021002030BD5FEA545C05D111
:100400004000494128BF41F0004130BD14F580044F
:100410003CBF01F5801130BD01F0004545F0FE41C3
:1004200041F470014FF0000030BD7FEA645C1ABFF8
:10043000194610467FEA655C1CBF0B46024650EA2F
:10044000013406BF52EA033591EA030F41F400215B
:1004500030BD00BF90F0000F04BF0021704730B5E1
:100460004FF4806404F132044FF000054FF00001B6
:1004700050E700BF90F0000F04BF0021704730B577
:100480004FF4806404F1320410F0004548BF40424C
:100490004FF000013EE700BF42004FEAE2014FEAA1
:1004A00031014FEA02701FBF12F07F4393F07F4F7C
:1004B00081F06051704732F07F4208BF704793F07F
:1004C0007F4F04BF41F40021704730B54FF4607492
:1004D00001F0004521F000411CE700BF50EA010295
:1004E00008BF704730B54FF000050AE050EA01023E
:1004F00008BF704730B511F0004502D5404261EBAE
:1005000041014FF4806404F132045FEA915C3FF4EE
:10051000D8AE4FF003025FEADC0C18BF03325FEA8B
:10052000DC0C18BF033202EBDC02C2F1200300FA3C
:1005300003FC20FA02F001FA03FE40EA0E0021FA61
:1005400002F11444BDE600BF70B54FF0FF0C4CF44F
:10055000E06C1CEA11541DBF1CEA135594EA0C0F01
:1005600095EA0C0F00F0DEF82C4481EA030621EA3C
:100570004C5123EA4C5350EA013518BF52EA033577
:1005800041F4801143F4801338D0A0FB02CE4FF029
:100590000005E1FB02E506F00042E0FB03E54FF059
:1005A0000006E1FB03569CF0000F18BF4EF0010E51
:1005B000A4F1FF04B6F5007F64F5407404D25FEA4D
:1005C0004E0E6D4146EB060642EAC62141EA555100
:1005D0004FEAC52040EA5E504FEACE2EB4F1FD0C42
:1005E00088BFBCF5E06F1ED8BEF1004F08BF5FEAC0
:1005F000500E50F1000041EB045170BD06F0004672
:1006000046EA010140EA020081EA0301B4EB5C041E
:10061000C2BFD4EB0C0541EA045170BD41F4801116
:100620004FF0000E013C00F3AB8014F1360FDEBF3B
:10063000002001F0004170BDC4F10004203C35DA17
:100640000C341BDC04F11404C4F1200500FA05F39A
:1006500020FA04F001FA05F240EA020001F000423B
:1006600021F0004110EBD37021FA04F642EB0601B1
:100670005EEA430E08BF20EAD37070BDC4F10C04DB
:10068000C4F1200500FA04F320FA05F001FA04F29F
:1006900040EA020001F0004110EBD37041F100018B
:1006A0005EEA430E08BF20EAD37070BDC4F1200596
:1006B00000FA05F24EEA020E20FA04F301FA05F2FE
:1006C00043EA020321FA04F001F0004121FA04F2A6
:1006D00020EA020000EBD3705EEA430E08BF20EA76
:1006E000D37070BD94F0000F0FD101F000464000B0
:1006F00041EB010111F4801F08BF013CF7D041EA32
:10070000060195F0000F18BF704703F00046520035
:1007100043EB030313F4801F08BF013DF7D043EA06
:100720000603704794EA0C0F0CEA135518BF95EABC
:100730000C0F0CD050EA410618BF52EA4306D1D143
:1007400081EA030101F000414FF0000070BD50EA62
:10075000410606BF1046194652EA430619D094EAEC
:100760000C0F02D150EA013613D195EA0C0F05D1D6
:1007700052EA03361CBF104619460AD181EA03012A
:1007800001F0004141F0FE4141F470014FF00000E2
:1007900070BD41F0FE4141F4780170BD70B54FF07D
:1007A000FF0C4CF4E06C1CEA11541DBF1CEA1355FD
:1007B00094EA0C0F95EA0C0F00F0A7F8A4EB0504DF
:1007C00081EA030E52EA03354FEA013100F08880D6
:1007D0004FEA03334FF0805545EA131343EA12639F
:1007E0004FEA022245EA111545EA10654FEA002654
:1007F0000EF000419D4208BF964244F1FD0404F50D
:10080000407402D25B084FEA3202B61A65EB030568
:100810005B084FEA32024FF480104FF4002CB6EB25
:10082000020E75EB030E22BFB61A754640EA0C00A5
:100830005B084FEA3202B6EB020E75EB030E22BFE5
:10084000B61A754640EA5C005B084FEA3202B6EB26
:10085000020E75EB030E22BFB61A754640EA9C00E5
:100860005B084FEA3202B6EB020E75EB030E22BFB5
:10087000B61A754640EADC0055EA060E18D04FEA73
:10088000051545EA16754FEA06164FEAC30343EA13
:1008900052734FEAC2025FEA1C1CC0D111F4801FE0
:1008A0000BD141EA00014FF000004FF0004CB6E7D9
:1008B00011F4801F04BF01430020B4F1FD0C88BF78
:1008C000BCF5E06F3FF6AFAEB5EB030C04BFB6EB83
:1008D000020C5FEA500C50F1000041EB045170BD76
:1008E0000EF0004E4EEA113114EB5C04C2BFD4EBA3
:1008F0000C0541EA045170BD41F480114FF0000E27
:10090000013C90E645EA060E8DE60CEA135594EAA2
:100910000C0F08BF95EA0C0F3FF43BAF94EA0C0FA5
:100920000AD150EA01347FF434AF95EA0C0F7FF41A
:1009300025AF104619462CE795EA0C0F06D152EA6E
:1009400003353FF4FDAE1046194622E750EA410652
:1009500018BF52EA43067FF4C5AE50EA41047FF463
:100960000DAF52EA43057FF4EBAE12E74FEA4102C6
:10097000B2F1E04324BFB3F5001CDCF1FE5C0DD9FD
:1009800001F0004C4FEAC0024CEA5070B2F1004F47
:1009900040EB830008BF20F00100704711F0804F4A
:1009A00021D113F13872BCBF01F00040704741F40F
:1009B00080114FEA5252C2F11802C2F1200C10FA13
:1009C0000CF320FA02F018BF40F001004FEAC123F7
:1009D0004FEAD32303FA0CFC40EA0C0023FA02F39B
:1009E0004FEA4303CCE77FEA625307D150EA013371
:1009F0001EBF4FF0FE4040F44000704701F0004041
:100A000040F0FE4040F40000704700BF034613F87A
:100A1000012B002AFBD1181A013870470000000092
:100A200001F0FF01102A2BDB10F0070F08D010F89F
:100A3000013B013A8B422DD010F0070F42B3F6D1A3
:100A4000F0B441EA012141EA014122F007047FF0BC
:100A500000070023F0E80256083C85EA010586EA13
:100A6000010685FA47F5A3FA87F586FA47F6A5FA4F
:100A700087F68EB9EED1F0BC01F0FF0102F007025B
:100A800032B110F8013B013A83EA010313B1F8D106
:100A90000020704701387047002D06BF35460338E7
:100AA000073815F0010F07D1013015F4807F02BF20
:100AB000013015F4C03F0130F0BC0138704700BF71
:100AC0004FF0FF3C06E000BF4FF0010C02E000BF1A
:100AD0004FF0010C4DF804CD4FEA410C7FEA6C5CFD
:100AE0004FEA430C18BF7FEA6C5C1BD001B050EAA0
:100AF000410C0CBF52EA430C91EA030F02BF90EA8B
:100B0000020F0020704710F1000F91EA030F58BF49
:100B1000994208BF90422CBFD8176FEAE37040F0AB
:100B2000010070474FEA410C7FEA6C5C02D150EA49
:100B3000013C07D14FEA430C7FEA6C5CD6D152EA04
:100B4000033CD3D05DF8040B704700BF84461046C9
:100B500062468C461946634600E000BF01B5FFF7C8
:100B6000B7FF002848BF10F1000F01BD4DF808ED98
:100B7000FFF7F4FF0CBF012000205DF808FB00BF69
:100B80004DF808EDFFF7EAFF34BF012000205DF8C3
:100B900008FB00BF4DF808EDFFF7E0FF94BF012010
:100BA00000205DF808FB00BF4DF808EDFFF7CEFF11
:100BB00094BF012000205DF808FB00BF4DF808ED50
:100BC000FFF7C4FF34BF012000205DF808FB00BF21
:100BD0004FEA410C7FEA6C5C02D150EA013C0AD139
:100BE0004FEA430C7FEA6C5C02D152EA033C02D12B
:100BF0004FF0000070474FF0010070474FEA41028C
:100C000012F5001215D211D56FF47873B3EB62525E
:100C100012D94FEAC12343F0004343EA505311F085
:100C2000004F23FA02F018BF404270474FF0000017
:100C3000704750EA013005D111F0004008BF6FF055
:100C4000004070474FF00000704700BF53B94AB9E9
:100C5000002908BF00281CBF4FF0FF314FF0FF30C4
:100C600000F088B9ADF1080C6DE904CE00F006F88B
:100C7000DDF804E0DDE9022304B070472DE9F04718
:100C8000089D8E4604468846002B4AD18A42174664
:100C900062D9B2FA82F64EB1C6F1200301FA06F823
:100CA00020FA03F3B74043EA0808B4404FEA174E6E
:100CB0001FFA87FCB8FBFEF1230C0EFB118843EAF8
:100CC000084301FB0CF29A4209D9FB1801F1FF30ED
:100CD00080F0EA809A4240F2E78002393B449A1A57
:100CE000A3B2B2FBFEF00EFB102243EA024300FB6C
:100CF0000CFC9C4509D9FB1800F1FF3280F0D6802E
:100D00009C4540F2D3803B44023840EA0140A3EBCB
:100D10000C0300211DB1F3400022C5E90032BDE8FB
:100D2000F0878B4205D90DB1C5E9000100210846C5
:100D3000F5E7B3FA83F1002946D1734502D3824225
:100D400000F20581841A6EEB030201209046002D0B
:100D5000E5D0C5E90048E2E7002A00F09080B2FA49
:100D600082F6002E40F0A4808A1A030C4FEA174E38
:100D700080B2BCB20121B2FBFEFC0EFB1C2243EA96
:100D8000024304FB0CF29A4207D9FB180CF1FF381E
:100D900002D29A4200F2E080C4469B1AB3FBFEF2F4
:100DA0000EFB123340EA034302FB04F49C4207D9D2
:100DB000FB1802F1FF3002D29C4200F2CA800246C8
:100DC0001B1B42EA0C40A5E7C1F120068B4022FA2A
:100DD00006F71F430EFA01F420FA06F32EFA06FE78
:100DE0004FEA1749234300FA01F81FFA87FCBEFBBC
:100DF000F9F01C0C09FB10EE44EA0E4400FB0CFE5B
:100E0000A64502FA01F209D93C1900F1FF3A80F037
:100E10009C80A64540F2998002383C44A4EB0E0425
:100E20001FFA83FEB4FBF9F309FB13444EEA0444B2
:100E300003FB0CFCA44508D93C1903F1FF3E80F0EC
:100E40008280A4457FD9023B3C4443EA0040A4EBA6
:100E50000C04A0FB02EC64457346E14662D35FD00C
:100E60005DB1B8EB030264EB090404FA06F622FA5A
:100E700001F31E43CC40C5E9006400214FE7B1FBFC
:100E8000F2FC010C41EA0E4180B240EA01423B46CD
:100E900038463C46B846BE462026B1FBF7F1A2EBE9
:100EA000080241EA0C4166E7014618E710462CE7C4
:100EB000C6F120022EFA02F3B740B14020FA02F246
:100EC0004FEA174E0A43B3FBFEF8BCB20EFB1833D1
:100ED000110C41EA034108FB04F9B04089454FEA8F
:100EE000104380B23ED9791808F1FF3C01D2894500
:100EF0001FD8A1EB0901B1FBFEF909FB04F80EFBB9
:100F0000191192B242EA0142424529D2BA1809F1B6
:100F1000FF31C4D24245C2D2A9F102013A44BEE730
:100F2000F0459DD2BEEB02036CEB070C0138E146A5
:100F300096E7A7EB09094944A8F1020CB1FBFEF9B9
:100F400009FB04F8DBE773467FE7504666E708468F
:100F5000FDE63B44023A33E7ACF1020C3B441CE7AC
:100F600049469CE7A1EB0901C446B1FBFEF909FB28
:100F700004F8C4E7704700BF80B400AF01231846EF
:100F8000BD465DF8047B704780B582B000AF7860E5
:100F9000396004F033FD034616221A604FF0FF3328
:100FA00018460837BD4680BD80B582B000AF786076
:100FB0004FF0FF317868FFF7E7FFFEE780B586B0B6
:100FC00000AFF860B9607A6000237B610AE0AFF39C
:100FD00000800146BB685A1CBA60CAB21A707B69AD
:100FE00001337B617A697B689A42F0DB7B68184643
:100FF0001837BD4680BD80B586B000AFF860B960D7
:101000007A6000237B6109E0BB685A1CBA601B78D8
:101010001846AFF300807B6901337B617A697B6896
:101020009A42F1DB7B6818461837BD4680BD80B414
:1010300083B000AF78604FF0FF3318460C37BD46E1
:101040005DF8047B704780B483B000AF786039608E
:101050003B684FF400525A60002318460C37BD46D7
:101060005DF8047B704780B483B000AF78600123E3
:1010700018460C37BD465DF8047B704780B485B0D8
:1010800000AFF860B9607A60002318461437BD4697
:101090005DF8047B7047000080B586B000AF7860D3
:1010A000144A154BD31A7B617B693B61134B1B6858
:1010B000002B02D1114B124A1A60104B1A687B6840
:1010C00013443A699A4207D204F098FC03460C2272
:1010D0001A604FF0FF3309E0084B1B68FB60074BB9
:1010E0001A687B681344054A1360FB681846183772
:1010F000BD4680BD0000022000040000F40A00206C
:101100001096002080B500AF01F0F8FA00BF80BD56
:1011100080B485B000AF786039604FF0500383F33E
:101120001188BFF36F8FBFF34F8FFB6000BFFEE7E7
:1011300080B582B000AF7860002001F007FB40F678
:10114000C41002F0E3FB002001F01EFB40F6C410C7
:1011500002F0DCFBF0E780B582B000AF78600120E0
:1011600001F0F4FA4FF47A7002F0D0FB012001F0A4
:101170000BFB4FF47A7002F0C9FBF0E780B590B03A
:1011800002AF786000F026FF254B18684FF0FF3360
:10119000009301230122012101F030FB00237B6336
:1011A0000EE0204B186807F108027B6B9B0013448C
:1011B0004FF0FF32194601F0D5FE7B6B01337B63A4
:1011C0007B6B092BEDDD184B1B684FF0FF31184688
:1011D00001F06AFF154800F0D3FF00233B6310E0E5
:1011E0003B6B9B0038333B44303B1B681846FFF792
:1011F00053F902460B460E4800F0C2FF3B6B013329
:101200003B633B6B092BEBDD0A4800F0B9FF064B53
:10121000186800230022002101F0DEFDB4E700BFC2
:10122000040B0020F80A0020080B0020909F000803
:10123000B09F0008B89F000880B584B000AF786008
:1012400000F096FA0023FB6000F0E2FAF0EE407A3C
:10125000C7ED027A0D4B186807F10801002342F22E
:10126000107201F0B9FDFB680133FB60FB68092BCC
:1012700007DD0023FB60064B1B680121184601F0C7
:1012800047FB4FF4967002F041FBDDE7F80A0020BF
:10129000040B002080B582B000AF78600A4B1B6859
:1012A0004FF0FF31184601F0FFFE084800F068FFDC
:1012B000054B186800230022002101F08DFD4FF43A
:1012C0007A7002F023FBE9E7080B0020C09F0008BA
:1012D00080B582B000AF786005223549354801F00D
:1012E000EBF804223249344801F0E6F8314801F0C5
:1012F0004FF90346012B27D1304B1B7818462D4B55
:101300001A692F4983000B441A602C4B1B7818462E
:10131000284BDA682A49031D9B000B4404331A60EA
:10132000264B1B780133DAB2244B1A70234B1B78FF
:10133000042B09D9214B00221A70224B1868002374
:1013400064221F4901F048FD1B4801F021F90346C2
:10135000012B27D11C4B1B781846174B1A691B49C8
:1013600083000B441A60184B1B781846124BDA683E
:101370001649031D9B000B4404331A60124B1B7863
:101380000133DAB2104B1A700F4B1B78042B09D9BA
:101390000D4B00221A700E4B1868002364220B4973
:1013A00001F01AFD4FF47A7002F0B0FA9EE700BF28
:1013B000000C02400C0B0020200B0020340B0020FE
:1013C000380B0020FC0A0020350B0020600B0020A9
:1013D000000B002080B58EB000AF7860294B1B68F1
:1013E00007F108014FF0FF32184601F0BBFD264B14
:1013F0001B684FF0FF31184601F056FE234800F0FD
:10140000BFFE00237B6310E07B6B9B0038333B44C3
:10141000303B1B681846FFF73FF802460B461C4856
:1014200000F0AEFE7B6B01337B637B6B042BEBDD4B
:10143000184800F0A5FE00233B6311E03B6B04332A
:101440009B0038333B442C3B1B681846FFF724F8BD
:1014500002460B460E4800F093FE3B6B01333B63A4
:101460003B6B042BEADD0C4800F08AFE064B186843
:1014700000230022002101F0AFFC4FF47A7002F04B
:1014800045FAABE7FC0A0020080B0020E49F0008A7
:1014900000A0000808A00008B89F000880B58EB022
:1014A00000AF7860294B1B6807F108014FF0FF324D
:1014B000184601F057FD264B1B684FF0FF311846C8
:1014C00001F0F2FD234800F05BFE00237B6310E097
:1014D0007B6B9B0038333B44303B1B681846FEF760
:1014E000DBFF02460B461C4800F04AFE7B6B0133D3
:1014F0007B637B6B042BEBDD184800F041FE00237F
:101500003B6311E03B6B04339B0038333B442C3B83
:101510001B681846FEF7C0FF02460B460E4800F057
:101520002FFE3B6B01333B633B6B042BEADD0C4826
:1015300000F026FE064B186800230022002101F06F
:101540004BFC4FF47A7002F0E1F9ABE7000B00209E
:10155000080B002014A0000800A0000808A0000844
:10156000B89F000880B58AB002AF00F0C9F900F05A
:1015700059FE01F0C3F800F0FBF80023FB610023E3
:10158000BB6100237B6100233B610023FB600023E0
:10159000BB6000237B6000233B60002204211420F9
:1015A00001F082FB03465B4A1360002228210A20D7
:1015B00001F07AFB0346584A1360002228210A20D2
:1015C00001F072FB0346554A1360524B1B68002B17
:1015D00000D1FEE7504B1B68002B00D1FEE74F4BBC
:1015E0001B68002B00D1FEE701F0ECF803464C4AE3
:1015F00013604B4B1B68002B00D1FEE7012001F06C
:10160000D2FB0346474A1360464B1B68002B00D1B0
:10161000FEE707F11C0301930023009300234FF41E
:1016200000724149414802F047F80346012B00D0BF
:10163000FEE707F1180301930023009300234FF402
:1016400000723B493B4802F037F80346012B00D0BB
:10165000FEE707F1140301930023009300234FF4E6
:1016600000723549354802F027F80346012B00D0B7
:10167000FEE707F1100301930023009300234FF4CA
:1016800000722F492F4802F017F80346012B00D0B3
:10169000FEE707F10C0301930023009300234FF4AE
:1016A00000722949294802F007F80346012B00D0AF
:1016B000FEE73B4601930023009300234FF40072A2
:1016C0002349244801F0F8FF0346012B00D0FEE730
:1016D00007F1080301930023009300234FF40072E5
:1016E0001D491E4801F0E8FF0346012B00D0FEE72C
:1016F0003B1D01930023009300234FF4007218490F
:10170000184801F0D9FF0346012B00D0FEE702F094
:1017100095F9FEE7F80A0020FC0A0020000B0020E3
:10172000040B0020080B002030A000083111000835
:1017300038A000085711000840A000087D110008DB
:1017400048A000083912000850A0000895120008AF
:1017500058A000089D14000860A00008D1120008DD
:1017600068A00008D513000880B400AFFEE70000B1
:1017700080B586B000AF082000F078F91E4B7B6181
:101780001E4B3B611E4BFB601E4BBB601E4B7B60C8
:101790007B691B6823F040727B691A607B681B6859
:1017A00023F4E0127B681A607B681B6843F4E01244
:1017B0007B681A60FB681B6823F44012FB681A60A0
:1017C000FB681B6823F47822FB681A60FB681B68BF
:1017D00043F40022FB681A60BB681B6843F40002F4
:1017E000BB681A603B691B6843F001023B691A60E1
:1017F00000BF1837BD4680BD0420014008200140CD
:1018000038200140042301400C200140000000006A
:1018100080B586B000AF4FF000037B614FF000034E
:101820003B610023FB81304BBB60304B7B60304B16
:101830003B60BB681B6843F48002BB681A6000BF52
:101840007B681B689B0803F00103002BF8D07B68C2
:101850001B6823F004027B681A603B681B68FB81ED
:10186000FB8940F6B83202FB03F31846FEF702FE8E
:101870001BA3D3E90023FEF791FF02460B46104657
:101880001946FFF773F803463B61D7ED047A9FEDE5
:10189000197A77EEC77A17EE900AFEF7FDFD4FF042
:1018A0000002154BFEF77AFF02460B46104619461A
:1018B0004FF00002114BFEF791FC02460B4610461A
:1018C0001946FFF753F803467B617B6907EE903AB0
:1018D000B0EE670A1837BD4680BD00BFAFF3008089
:1018E0000000000000FEAF40082001400020014041
:1018F0003C20014000003E4400000440000039400C
:1019000080B485B000AF554BFB60554BBB60554B69
:101910007B60FB681B6843F48032FB681A6000BF81
:10192000FB681B685B0C03F00103002BF8D04E4BE7
:101930003B603B681B6843F005023B681A603B68EC
:101940001B6843F480723B681A603B681B6843F471
:1019500000723B681A603B681B6843F480623B6816
:101960001A60BB681B6823F03F02BB681A60BB6843
:101970001B6843F00802BB681A60BB681B6823F44D
:10198000FF4323F04003BA681360BB681B6843F44D
:10199000A842BB681A60BB681B6823F44032BB686E
:1019A0001A60BB681A68BB681A60BB681B6823F0C2
:1019B0007062BB681A60BB681B6843F0E062BB687A
:1019C0001A60BB681B6843F48002BB681A60FB683E
:1019D0001B6843F08072FB681A6000BFFB681B68DD
:1019E0005B0E03F00103002BF8D07B681B6823F02B
:1019F000F0027B681A607B681B6823F4E0527B6806
:101A00001A607B681B6843F4A0527B681A607B688D
:101A10001B6823F460427B681A607B681B6843F490
:101A200000427B681A607B681B6823F003027B68B6
:101A30001A607B681B6843F002027B681A6000BF73
:101A40007B681B689B0803F00303022BF8D100BFDF
:101A500000BF1437BD465DF8047B70470038024074
:101A60000438024008380240003C024080B485B08F
:101A700000AF0346FB71084BFB60FB681B68FA79FB
:101A8000012101FA02F21A43FB681A6000BF143701
:101A9000BD465DF8047B70474438024080B483B093
:101AA00000AF78600B46FB70FB78012B62D17B683E
:101AB000644A934206D1644B1B6B634A43F00103B3
:101AC0001363B9E07B68614A934206D15E4B1B6B9E
:101AD0005D4A43F002031363AEE07B685C4A9342C5
:101AE00006D1594B1B6B584A43F004031363A3E020
:101AF0007B68584A934206D1534B1B6B524A43F0C2
:101B00000803136398E07B68534A934206D14E4B17
:101B10001B6B4D4A43F0100313638DE07B684F4A03
:101B2000934206D1484B1B6B474A43F02003136393
:101B300082E07B684A4A934206D1434B1B6B424A80
:101B400043F04003136377E07B68464A934206D133
:101B50003D4B1B6B3C4A43F0800313636CE07B6896
:101B6000414A934268D1384B1B6B374A43F4807328
:101B7000136361E07B68334A934206D1324B1B6B9F
:101B8000314A23F00103136356E07B682F4A9342E6
:101B900006D12D4B1B6B2C4A23F0020313634BE041
:101BA0007B682B4A934206D1274B1B6B264A23F0B6
:101BB0000403136340E07B68264A934206D1224B1C
:101BC0001B6B214A23F00803136335E07B68224A2C
:101BD000934206D11C4B1B6B1B4A23F0100313636B
:101BE0002AE07B681D4A934206D1174B1B6B164AAD
:101BF00023F0200313631FE07B68194A934206D148
:101C0000114B1B6B104A23F04003136314E07B68F5
:101C1000144A934206D10C4B1B6B0B4A23F08003F2
:101C2000136309E07B68104A934205D1064B1B6B96
:101C3000054A23F48073136300BF0C37BD465DF87B
:101C4000047B70470000024000380240000402405C
:101C500000080240000C0240001002400014024044
:101C600000180240001C02400020024080B483B0F3
:101C700000AF78600B467B8013467B707B78002B2F
:101C800009D07B685B697A88012101FA02F21A4364
:101C90007B685A6109E07B685B697A88012101FAF7
:101CA00002F2D2431A407B685A6100BF0C37BD462E
:101CB0005DF8047B7047000080B586B000AF7860A7
:101CC0007B681B6801211846FFF7E8FE7B685B799B
:101CD000032B20D87B685B791A467B681B795B00F5
:101CE00002FA03F33B617B681B681A687B681B7907
:101CF0005B00032101FA03F3DB4319467B681B6891
:101D00000A401A607B681B6819687B681B683A691F
:101D10000A431A60B7E07B685B79042B17D1474B05
:101D2000DB687A681279114601228A401146434ADB
:101D30000B43D360414B9B687A68127911460122AC
:101D40008A40D24311463D4A0B40936035E07B68A0
:101D50005B79052B17D1394B9B687A68127911464C
:101D600001228A401146354A0B439360334BDB68AE
:101D70007A681279114601228A40D24311462F4ACD
:101D80000B40D36019E07B685B79062B15D12B4B98
:101D9000DB687A681279114601228A401146274A87
:101DA0000B43D360254B9B687A6812791146012258
:101DB0008A401146214A0B4393607B681B799B083C
:101DC000FB757B681B7903F00303BB757B681B689D
:101DD0001B4A93423AD07B681B681A4A93422BD025
:101DE0007B681B68184A934224D07B681B68154A9D
:101DF00093421DD07B681B68114A934216D07B68C2
:101E00001B68104A93420FD07B681B680C4A9342B0
:101E100008D07B681B680B4A934201D1072316E068
:101E2000002314E0062312E0052310E004230EE053
:101E300003230CE002230AE0012308E0003C0140F8
:101E400000000240000402400008024000237B75AD
:101E50005D4B5B6C5C4A43F4804353647A7DBB7D8D
:101E60009B0002FA03F1594AFB7D023342F823102A
:101E7000574B1B687A681279114601228A40114635
:101E8000534A0B43136000233B617B689B791A46DE
:101E90007B681B795B0002FA03F33B617B681B687C
:101EA0009A687B681B795B00032101FA03F3DB432B
:101EB00019467B681B680A409A607B681B689968B2
:101EC0007B681B683A690A439A6000233B617B6820
:101ED000DB791A467B681B795B0002FA03F33B61EE
:101EE0007B681B68DA687B681B795B00032101FA59
:101EF00003F3DB4319467B681B680A40DA607B68A2
:101F00001B68D9687B681B683A690A43DA6000235A
:101F10003B617B681B7A1A467B681B7902FA03F3E4
:101F20003B617B681B685A687B681B7919460123F3
:101F30008B40DB4319467B681B680A405A607B680C
:101F40001B6859687B681B683A690A435A6000231A
:101F50003B617B685B79022B32D17B681B79DB08A4
:101F6000DBB2FB607B681B7903F00703BB607B6817
:101F70001B68FA68083253F82220BB689B000F21C7
:101F800001FA03F3DB4319467B681B681140FA68CA
:101F9000083243F822107B681B68FA68083253F84D
:101FA00022207B685B7A1946BB689B0001FA03F329
:101FB00019467B681B681143FA68083243F82210FF
:101FC00000BF1837BD4680BD0038024000380140D0
:101FD000003C014080B487B000AF2C4B1B6B2B4AF8
:101FE00043F0020313632A4B7B612A4B3B617B69FD
:101FF0001B6823F470427B691A607B691B6843F499
:1020000020427B691A603B691B6823F07F423B6971
:102010001A603B691B6843F0EE423B691A601B4B38
:102020005B6C1A4A43F0100353641B4BFB601B4B61
:10203000BB60FB6842F22E221A60BB681B6823F467
:102040008062BB681A60BB681B6823F48052BB685F
:102050001A60BB681B6843F4005343F00C03BA6872
:102060001360BB681B6843F02002BB681A600C4B0E
:102070007B607B681B6843F020027B681A6000BFAE
:102080001C37BD465DF8047B704700BF0038024036
:102090000004024020040240081001400C100140DE
:1020A00004E100E080B485B000AF0346FB71114B42
:1020B000FB60114BBB6000BFFB681B68DB0903F0D2
:1020C0000103002BF8D0FA79BB681A6000BFFB68E7
:1020D0001B689B0903F00103002BF8D0FB681B6809
:1020E00023F04002FB681A6000BF1437BD465DF85C
:1020F000047B7047001001400410014080B582B09D
:1021000000AF174B7B607B681868164B1B685A1C26
:1021100014490A60C1B2144AD1541449124803F058
:1021200011FC0346002B08D00E4B00221A6014222B
:1021300000210D4803F0FEFB0EE00D490A4803F0B4
:1021400001FC0346002B07D0064B00221A60142224
:102150000021054803F0EEFB00BF0837BD4680BDF7
:10216000041001409C0B0020880B002070A0000888
:1021700078A0000880B500AFFFF7C0FF00BF80BDAA
:102180000FB480B5C4B000AF07F58873A3F58473AE
:1021900018464FF480731A46002103F0CBFB00234E
:1021A000C7F8083107F58E7207F58873A3F58673B3
:1021B0001A6007F58873A3F5867307F108001B689A
:1021C000D7F818214FF4807103F0A6FB07F108033C
:1021D0001846FEF71BFC0346C7F808310023C7F872
:1021E0000C310FE007F58873A3F58472D7F80C3132
:1021F00013441B781846FFF755FFD7F80C3101330D
:10220000C7F80C31D7F80C21D7F808319A42E9DB2E
:1022100000BF00BF07F58877BD46BDE8804004B029
:102220007047000080B487B000AF184B1B6C174A92
:1022300043F0010313644FF080437B61144B3B6117
:10224000144BFB60144BBB60144B7B607B691B68B9
:1022500023F001027B691A603B694FF0FF321A607C
:10226000FB6853221A60BB6800221A607B68012257
:102270001A607B691B6843F001027B691A6000BF2A
:102280001C37BD465DF8047B704700BF0038024034
:102290002C000040280000402400004014000040B2
:1022A00080B485B000AF7860094BFB60FB681B68A9
:1022B000BB6000BFFB681A68BB68D31A7A689A4291
:1022C000F8D800BF00BF1437BD465DF8047B7047E7
:1022D0002400004080B483B000AF78607B681B6846
:1022E0001A697B681B79194601238B401340002B28
:1022F00001D0012300E0002318460C37BD465DF8ED
:10230000047B704780B584B000AFF8600B467A60FC
:10231000FB720CE0F868FFF7DDFF03461A46FB7A14
:10232000934201D1012308E00120FFF7B9FF7B6848
:102330005A1E7A60002BEDD1002318461037BD4697
:1023400080BD80B584B000AF78607B681B795B008E
:10235000FB737B681B6801211846FFF79FFB7B68B6
:102360001B681A68FB7B032101FA03F3DB43194660
:102370007B681B680A401A607B681B681A68FB7BD5
:10238000012101FA03F319467B681B680A431A60AE
:102390007B681B6859687B681B791A46012303FA1E
:1023A00002F27B681B680A435A607B681B689A6864
:1023B000FB7B032101FA03F3DB4319467B681B68AF
:1023C0000A409A607B681B689A68FB7B022101FACD
:1023D00003F319467B681B680A439A607B681B6895
:1023E000DA68FB7B032101FA03F3DB4319467B68C0
:1023F0001B680A40DA607B681B68DA68FB7B012196
:1024000001FA03F319467B681B680A43DA6000BFD0
:102410001037BD4680BD80B584B000AF78607B6862
:102420001B795B00FB737B681B6801211846FFF773
:1024300035FB7B681B681A68FB7B032101FA03F3F9
:10244000DB4319467B681B680A401A607B681B687F
:102450009A68FB7B032101FA03F3DB4319467B688F
:102460001B680A409A607B681B689A68FB7B0221A4
:1024700001FA03F319467B681B680A439A607B687C
:102480001B68DA68FB7B032101FA03F3DB4319467F
:102490007B681B680A40DA607B681B68DA68FB7B34
:1024A000012101FA03F319467B681B680A43DA60CD
:1024B00000BF1037BD4680BD80B584B000AFF86066
:1024C000B9601346FB71FB68BA681A60FB68FA7959
:1024D0001A71FB6800225A71FB6800229A71FB682E
:1024E0000022DA71FB6800221A72FB6800225A721D
:1024F000FB684FF00002DA60FB684FF000021A61DF
:10250000F868FFF788FF00BF1037BD4680BD80B573
:1025100084B000AF786039600023FB730023BB7385
:102520002BE04FF4027201217868FFF7EBFE0346BF
:10253000002B01D1002327E02820FFF7B1FE7868A7
:10254000FFF7C8FE0346002B09D0BB7BC3F107038E
:10255000012202FA03F3DAB2FB7B1343FB734FF45D
:10256000027200217868FFF7CDFE0346002B01D1EF
:10257000002309E0BB7B0133BB73BB7B072BD0D9A6
:102580003B68FA7B1A70012318461037BD4680BDA0
:1025900080B584B000AF78600023FB737868FFF7E4
:1025A000D0FE7B681B6859697B681B791A4601233A
:1025B0009340DA437B681B680A405A61142001F09B
:1025C000A5F902F0FBFD7868FFF725FF2820FFF74B
:1025D00067FE4FF4027200217868FFF793FE03460E
:1025E000002B40D04FF4027201217868FFF78AFE79
:1025F0000346002B37D04FF4027200217868FFF7B2
:1026000081FE0346002B2ED07B680533194678687F
:10261000FFF77DFF0346002B25D07B680633194664
:102620007868FFF774FF0346002B1CD07B680733E4
:1026300019467868FFF76BFF0346002B13D07B68C1
:10264000083319467868FFF762FF0346002B0AD06B
:102650007B68093319467868FFF759FF0346002B5A
:1026600001D00123FB7302F0C3FDFB7B002B01D1E2
:1026700000233EE07B685A797B689B791344DAB289
:102680007B68DB791344DAB27B681B7A1344DAB2D5
:102690007B685B7A9A4201D000232AE07B685B79F1
:1026A00007EE903AB8EE677A7B689B7907EE903A2E
:1026B000F8EE676AB2EE046AC6EE867A77EE277A9B
:1026C0007B68C3ED037A7B68DB7907EE903AB8EE5E
:1026D000677A7B681B7A07EE903AF8EE676AB2EE8B
:1026E000046AC6EE867A77EE277A7B68C3ED047AB1
:1026F000012318461037BD4680BD000080B584B068
:1027000000AF104B1B6B0F4A43F0010313630E4BDA
:102710007B6001237B720323BB720023FB720023C7
:102720003B7306233B723B1D1846FFF7C5FA072390
:102730003B723B1D1846FFF7BFFA00BF1037BD467E
:1027400080BD00BF003802400000024080B582B06A
:1027500000AF0346FB71FB79002B02D0012B06D0A2
:102760000BE0012206210748FFF780FA05E001226D
:1027700007210448FFF77AFA00BF00BF0837BD46BB
:1027800080BD00BF0000024080B582B000AF0346AC
:10279000FB71FB79002B02D0012B06D00BE000224D
:1027A00006210748FFF762FA05E0002207210448E6
:1027B000FFF75CFA00BF00BF0837BD4680BD00BF11
:1027C0000000024080B582B000AF242002F0A6FDD8
:1027D00078607B68002B0BD07B6800221A607B68D6
:1027E0000433184600F025F97B68002283F8202086
:1027F0007B6818460837BD4680BD000080B58CB0A8
:1028000000AFF860B9607A603B60FB687B620023D0
:10281000BB6200233B6201F045F97B6A1B68FB61E8
:102820003A68B968F86900F0E2F8B861BB69002B52
:102830000ED0FB69FB620023BB637B68002B28D0B2
:102840007B6A1A68BB68DB431A407B6A1A6020E027
:10285000BB6B002B04D1FB69FB6201233B6218E0D8
:102860007B68002B03D0BB6A43F08073BB623B687C
:10287000002B03D0BB6A43F08063BB627B6A181DE8
:10288000BA68BB6A1343BA6B194601F0CDFB00234B
:10289000FB6201F015F97861BB6B002B31D07B69CD
:1028A000002B07D1194B4FF080521A60BFF34F8FA6
:1028B000BFF36F8F02F066F8F862FB6A03F00073F3
:1028C000002B1AD102F07AFC7B6A1B68FB623A6823
:1028D000B968F86A00F08BF80346002B09D07B68D2
:1028E000002B06D07B6A1A68BB68DB431A407B6A00
:1028F0001A6001233B6202F07BFCFB6A23F07F43FA
:10290000FB62FB6A18463037BD4680BD04ED00E02F
:1029100080B58CB000AF786039600023BB627B6803
:102920003B6200237B623B6A0433FB61FB69083333
:10293000BB6101F0B7F8FB69DB68FB623B6A1A68B0
:102940003B681A433B6A1A603CE0FB6A5B683B6188
:10295000FB6A1B68FB6000237B62FB6803F07F431C
:10296000BB60FB6823F07F43FB60BB6803F08063C0
:10297000002B08D13B6A1A68FB681340002B0BD070
:1029800001237B6208E03B6A1A68FB681340FA681F
:102990009A4201D101237B627B6A002B10D0BB6875
:1029A00003F08073002B03D0BA6AFB681343BB6249
:1029B0003B6A1B6843F000731946F86A01F070FC2B
:1029C0003B69FB62FA6ABB699A42BED13B6A1A68EC
:1029D000BB6ADB431A403B6A1A603B6A1B687B6137
:1029E00001F06EF87B6918463037BD4680BD80B473
:1029F00087B000AFF860B9607A6000237B617B68C4
:102A0000002B07D1FA68BB681340002B0AD00123C2
:102A10007B6107E0FA68BB681340BA689A4201D14B
:102A200001237B617B6918461C37BD465DF8047B3A
:102A3000704780B483B000AF78607B6803F1080210
:102A40007B685A607B684FF0FF329A607B6803F1C5
:102A500008027B68DA607B6803F108027B681A6110
:102A60007B6800225A617B6800229A617B680022A1
:102A70001A6000BF0C37BD465DF8047B704780B418
:102A800083B000AF78607B6800221A6100BF0C370A
:102A9000BD465DF8047B704780B485B000AF7860B8
:102AA00039603B681B68BB60BB68B3F1FF3F03D173
:102AB0007B681B69FB600CE07B680833FB6002E00D
:102AC000FB685B68FB60FB685B681B68BA689A42DE
:102AD000F6D2FB685A683B685A603B685B683A68A4
:102AE0009A603B68FA689A60FB683A685A603B688B
:102AF0007A681A617B681B685A1C7B681A6000BF81
:102B00001437BD465DF8047B704780B485B000AFD4
:102B100078607B681B69FB607B685B687A68926899
:102B20009A607B689B687A6852685A60FB685B6849
:102B30007A689A4203D17B689A68FB685A607B681E
:102B400000221A61FB681B685A1EFB681A60FB684A
:102B50001B6818461437BD465DF8047B70470000BB
:102B600080B584B000AF786039600123FB607B687A
:102B7000BB60BB68002B5DD0BB68DB6C002B59D001
:102B8000BB681A6DBB68DB6C0021A3FB0223002B22
:102B900000D001210B46002B4CD102F00FFBBB688B
:102BA0001A68BB68DB6CB968096D01FB03F31A4452
:102BB000BB689A60BB6800229A64BB681A68BB68ED
:102BC0005A60BB681A68BB68DB6C013BB968096D69
:102BD00001FB03F31A44BB68DA60BB68FF2283F889
:102BE0005420BB68FF2283F855203B68002B14D18A
:102BF000BB681B69002B1AD0BB681033184601F064
:102C000083FA0346002B12D00E4B4FF080521A600D
:102C1000BFF34F8FBFF36F8F09E0BB6810331846C7
:102C2000FFF707FFBB682C331846FFF702FF02F0DF
:102C3000DFFA01E00023FB60FB6818461037BD4651
:102C400080BD00BF04ED00E080B588B002AFF86041
:102C5000B9607A603B6000237B61FB68002B1ED06B
:102C60003B68002B1BD07B68002B02D0BB68002B7D
:102C700015D07B68002B02D1BB68002B0FD13B68BD
:102C80007B617B69012283F8562097F820207B69BD
:102C9000009313467A68B968F86800F048F87B69D1
:102CA00018461837BD4680BD80B58AB002AFF860BF
:102CB000B9601346FB710023FB61FB68002B31D028
:102CC0000021BA68FB68A3FB0223002B00D001217E
:102CD0000B46002B26D1FB68BA6802FB03F313F105
:102CE0005D0F1FD8FB68BA6802FB03F3BB61BB69C9
:102CF0005C33184602F012FBF861FB69002B11D01F
:102D0000FB697B617B695C337B61FB69002283F833
:102D10005620FA79FB69009313467A69B968F86816
:102D200000F005F8FB6918462037BD4680BD80B528
:102D300084B000AFF860B9607A60FB70BB68002BAC
:102D400003D1BB69BA691A6002E0BB697A681A608C
:102D5000BB69FA68DA64BB69BA681A650121B869A7
:102D6000FFF7FEFEBB6900229A6500BF1037BD4623
:102D700080BD80B582B000AF78607B68002B0ED03C
:102D80007B6800229A607B6800221A607B680022C0
:102D9000DA60002300220021786800F01DF800BFEF
:102DA0000837BD4680BD80B586B000AF0346FB71D5
:102DB00001237B6100233B61FB791A4639697869FD
:102DC000FFF772FFF860F868FFF7D3FFFB6818465B
:102DD0001837BD4680BD000080B58AB000AFF860EE
:102DE000B9607A603B6000237B62FB683B6202F063
:102DF000E5F93B6A9A6C3B6ADB6C9A4202D33B680A
:102E0000022B45D13B6A9B6CFB613A68B968386A12
:102E100000F02AFAB8613B6A9B6D002B14D03B6826
:102E2000022B02D1FB69002B2ED1386A00F06DFB1A
:102E30000346002B28D04A4B4FF080521A60BFF354
:102E40004F8FBFF36F8F1FE03B6ADB6A002B10D000
:102E50003B6A2C33184601F057F90346002B13D078
:102E60003F4B4FF080521A60BFF34F8FBFF36F8F0D
:102E70000AE0BB69002B07D0394B4FF080521A6033
:102E8000BFF34F8FBFF36F8F02F0B2F9012363E0FE
:102E90007B68002B03D102F0ABF900235CE07B6A76
:102EA000002B06D107F11003184601F09DFA01230B
:102EB0007B6202F09DF900F0F5FD02F07FF93B6ABC
:102EC00093F854305BB2B3F1FF3F03D13B6A002269
:102ED00083F854203B6A93F855305BB2B3F1FF3F5F
:102EE00003D13B6A002283F8552002F081F93A1D94
:102EF00007F110031146184601F08CFA0346002B27
:102F000024D1386A00F0B5FA0346002B18D03B6A8A
:102F100010337A681146184601F070F8386A00F0EC
:102F200033FA00F0CDFD0346002B7FF460AF0C4B6D
:102F30004FF080521A60BFF34F8FBFF36F8F56E789
:102F4000386A00F021FA00F0BBFD50E7386A00F063
:102F50001BFA00F0B5FD002318462837BD4680BD9A
:102F600004ED00E080B58AB000AFF860B9607A6027
:102F700000237B62FB683B6202F020F93B6A9B6C9A
:102F8000FB61FB69002B1FD0B968386A00F0D6F9E5
:102F9000FB695A1E3B6A9A643B6A1B69002B0FD07F
:102FA0003B6A1033184601F0AFF80346002B07D0F8
:102FB0003C4B4FF080521A60BFF34F8FBFF36F8FBF
:102FC00002F016F9012369E07B68002B03D102F0BF
:102FD0000FF9002362E07B6A002B06D107F114038E
:102FE000184601F001FA01237B6202F001F900F0BA
:102FF00059FD02F0E3F83B6A93F854305BB2B3F149
:10300000FF3F03D13B6A002283F854203B6A93F8C8
:1030100055305BB2B3F1FF3F03D13B6A002283F826
:10302000552002F0E5F83A1D07F114031146184641
:1030300001F0F0F90346002B23D1386A00F003FABF
:103040000346002B17D03B6A2C337A68114618468A
:1030500000F0D4FF386A00F097F900F031FD034624
:10306000002B89D10F4B4FF080521A60BFF34F8F66
:10307000BFF36F8F80E7386A00F086F900F020FD1B
:103080007AE7386A00F080F900F01AFD386A00F03B
:10309000DAF90346002B3FF46FAF002318462837B8
:1030A000BD4680BD04ED00E080B58AB000AF786019
:1030B000396000237B627B68FB6100233B6202F086
:1030C0007DF8FB699B6CBB61BB69002B24D0BB699D
:1030D0005A1EFB699A64FB691B68002B04D101F03E
:1030E00069FC0246FB699A60FB691B69002B0FD0E3
:1030F000FB691033184601F007F80346002B07D090
:103100004C4B4FF080521A60BFF34F8FBFF36F8F5D
:1031100002F06EF8012389E03B68002B03D102F036
:1031200067F8002382E07B6A002B06D107F10C03CD
:10313000184601F059F901237B6202F059F800F0BA
:10314000B1FC02F03BF8FB6993F854305BB2B3F189
:10315000FF3F03D1FB69002283F85420FB6993F8F9
:1031600055305BB2B3F1FF3F03D1FB69002283F816
:10317000552002F03DF83A4607F10C031146184677
:1031800001F048F90346002B32D1F86900F05BF9F1
:103190000346002B26D0FB691B68002B09D102F0E7
:1031A0000DF8FB699B68184601F05AFA386202F084
:1031B0001FF8FB692C333A681146184600F01EFFD1
:1031C000F86900F0E1F800F07BFC0346002B7FF487
:1031D00076AF184B4FF080521A60BFF34F8FBFF39A
:1031E0006F8F6CE7F86900F0CFF800F069FC66E7D4
:1031F000F86900F0C9F800F063FCF86900F023F901
:103200000346002B3FF45BAF3B6A002B0DD001F06F
:10321000D5FFF86900F010F87861FB699B6879695F
:10322000184601F025FB01F0E3FF0023184628377C
:10323000BD4680BD04ED00E080B485B000AF78608D
:103240007B68DB6A002B06D07B689B6B1B68C3F135
:103250000503FB6001E00023FB60FB6818461437A0
:10326000BD465DF8047B704780B586B000AFF8605E
:10327000B9607A6000237B61FB689B6C3B61FB68F3
:103280001B6D002B0DD1FB681B68002B4DD1FB681B
:103290009B68184601F076FA7861FB6800229A6014
:1032A00043E07B68002B19D1FB685868FB681B6DF5
:1032B0001A46B96802F0D0FBFB685A68FB681B6DC0
:1032C0001A44FB685A60FB685A68FB689B689A421C
:1032D0002BD3FB681A68FB685A6026E0FB68D86845
:1032E000FB681B6D1A46B96802F0B6FBFB68DA682A
:1032F000FB681B6D5B421A44FB68DA60FB68DA68A6
:10330000FB681B689A4207D2FB689A68FB681B6DD2
:103310005B421A44FB68DA607B68022B05D13B698B
:10332000002B02D03B69013B3B613B695A1CFB68A7
:103330009A647B6918461837BD4680BD80B582B057
:1033400000AF786039607B681B6D002B18D07B68FC
:10335000DA687B681B6D1A447B68DA607B68DA6820
:103360007B689B689A4203D37B681A687B68DA6043
:103370007B68D9687B681B6D1A46386802F06CFB65
:1033800000BF0837BD4680BD80B584B000AF78600F
:1033900001F014FF7B6893F85530FB731EE07B68E7
:1033A0009B6D002B08D0786800F0AFF80346002B27
:1033B00010D001F089F80DE07B68DB6A002B12D099
:1033C0007B682C33184600F09FFE0346002B01D08B
:1033D00001F07AF8FB7B013BDBB2FB7397F90F300E
:1033E000002BDCDC00E000BF7B68FF2283F8552067
:1033F00001F0FEFE01F0E2FE7B6893F85430BB73EF
:1034000011E07B681B69002B12D07B6810331846D3
:1034100000F07AFE0346002B01D001F055F8BB7B8B
:10342000013BDBB2BB7397F90E30002BE9DC00E007
:1034300000BF7B68FF2283F8542001F0D9FE00BF53
:103440001037BD4680BD80B584B000AF786001F014
:10345000B5FE7B689B6C002B02D10123FB6001E071
:103460000023FB6001F0C4FEFB6818461037BD4620
:1034700080BD80B584B000AF786001F09FFE7B68AE
:103480009A6C7B68DB6C9A4202D10123FB6001E0FD
:103490000023FB6001F0ACFEFB6818461037BD4608
:1034A00080BD80B586B000AFF860B9607A60FB6817
:1034B0007B6101F083FE7B6993F854305BB2B3F11A
:1034C000FF3F03D17B69002283F854207B6993F886
:1034D00055305BB2B3F1FF3F03D17B69002283F823
:1034E000552001F085FE7B699B6C002B06D17B6922
:1034F0002C337A68B968184600F0CEFD7869FFF77A
:1035000043FF00BF1837BD4680BD80B586B000AF11
:1035100078607B689B6D3B6100237B613B699A6CA3
:103520003B69DB6C9A422DD23B6993F85530FB73B3
:103530003B1D002219463869FFF796FE786197F91E
:103540000F30B3F1FF3F0ED13B69DB6A002B19D07E
:103550003B692C33184600F0D7FD0346002B11D0F1
:1035600001237B610EE000F0B5FBB86097F90F30E6
:10357000BA689A4206D9FB7B0133DBB25AB23B6987
:1035800083F855207B6918461837BD4680BD80B545
:103590008AB004AFF860B9607A603B60BB6A002B08
:1035A0001FD07B6A002B1CD0BB6A7B615422002198
:1035B000786902F0BFF97B697A6A1A637B69022233
:1035C00083F85120002303937B690293FB6A0193E4
:1035D0003B6A00933B687A68B968F86800F08FF836
:1035E00001E000237B617B6918461837BD4680BD2A
:1035F00080B58AB004AFF860B9607A603B600023A0
:103600003B6107F110030393BB6A02937B6A01934A
:103610003B6A00933B687A68B968F868FFF7B7FFC0
:1036200078617B69002B02D0786900F0D9F83B699A
:1036300018461837BD4680BD80B58AB004AFF86023
:10364000B9607A603B607B689B00184601F066FEBB
:1036500038613B69002B13D0542001F05FFE786184
:103660007B69002B08D054220021786902F062F9AE
:103670007B693A691A6305E0386901F001FF01E0EE
:1036800000237B617B69002B11D07B69002283F8CA
:103690005120002303937B6902937B6A01933B6A69
:1036A00000933B687A68B968F86800F028F87B698D
:1036B00018461837BD4680BD80B588B002AFF860A7
:1036C000B9607A603B607B6A01933B6A00933B6818
:1036D0007A68B968F868FFF7AFFF38613B69002B7B
:1036E00005D0386900F07CF801237B6102E04FF0DF
:1036F000FF337B617B6918461837BD4680BD80B5B6
:1037000086B000AFF860B9607A603B60BB6A186B46
:103710007B689B001A46A52102F00CF9BB6A1A6B64
:103720007B6803F18043013B9B0013443B613B6991
:1037300023F007033B61BB68002B1ED000237B6195
:1037400012E0BA687B6913441978BA6A7B6913443A
:1037500034330A461A70BA687B6913441B78002B0D
:1037600006D07B6901337B617B69092BE9D900E0D5
:1037700000BFBB6A002283F83D203B6A042B01D9BD
:1037800004233B62BB6A3A6ADA62BB6A3A6A1A6429
:10379000BB6A04331846FFF772F9BB6A1833184640
:1037A000FFF76DF9BB6ABA6A1A613B6AC3F1050299
:1037B000BB6A9A61BB6ABA6A5A623A68F968386940
:1037C00001F04EFC0246BB6A1A607B6A002B02D0F5
:1037D0007B6ABA6A1A6000BF1837BD4680BD000018
:1037E00080B584B000AF786001F0E8FC404B1B6806
:1037F00001333F4A13603F4B1B68002B09D13D4A00
:103800007B6813603A4B1B68012B10D100F080FEDF
:103810000DE0394B1B68002B09D1364B1B68DA6A67
:103820007B68DB6A9A4202D8324A7B681360334B6A
:103830001B680133314A13607B68DA6A304B1B68BE
:103840009A4203D97B68DB6A2D4A13607B68DA6A87
:103850002C491346DB009B1A9B000B4404331B6866
:10386000FB607B68FA689A60FB689A687B68DA603C
:10387000FB689B687A6804325A607B681A1DFB6893
:103880009A607B68DA6A1346DB009B1A9B001D4A2C
:103890001A447B685A617B68DA6A1A491346DB006E
:1038A0009B1A9B000B441B687A68D26A591C154806
:1038B0001346DB009B1A9B000344196001F098FC3F
:1038C0000D4B1B68002B0ED00A4B1B68DA6A7B6815
:1038D000DB6A9A4207D20C4B4FF080521A60BFF35A
:1038E0004F8FBFF36F8F00BF1037BD4680BD00BF45
:1038F000C80C0020A00B0020D40C0020E40C0020F9
:10390000D00C0020A40B002004ED00E080B584B0B2
:1039100000AF78600023FB607B68002B08D000F0CC
:10392000C1F80021786801F05DF800F0C9F8F8608E
:10393000FB68002B07D1064B4FF080521A60BFF393
:103940004F8FBFF36F8F00BF1037BD4680BD00BFE4
:1039500004ED00E080B58EB004AF01237B6207F177
:103960000C0300221A605A601A810023BB610023F5
:10397000FB6113E02E4AFB691344197807F10C022E
:10398000FB6913440A461A7007F10C02FB691344E1
:103990001B78002B06D0FB690133FB61FB69082B08
:1039A000E8D900E000BF07F10C02FB6913440022D4
:1039B0001A7000233B6230E01E4BBB610023BB60EA
:1039C00000237B603A46391D07F10803184601F0D1
:1039D0007FF838687B68BA6807F10C01029201939E
:1039E0000023009300230246B869FFF701FE024658
:1039F00011493B6A41F823200F4A3B6A52F82330B1
:103A0000002B02D001237B6201E000237B627B6AF2
:103A1000012B06D13B6A01333B623B6A002BCBDDB5
:103A200000E000BF7B6A18462837BD4680BD00BF56
:103A300088A00008E1440008EC0C002080B582B0AA
:103A400000AFFFF787FF78607B68012B02D101F0A0
:103A500073F878607B68012B15D14FF0500383F326
:103A60001188BFF36F8FBFF34F8F3B6000BF094BCF
:103A70004FF0FF321A60084B01221A60074B0022F8
:103A80001A6001F063FB064B1B6800BF0837BD4698
:103A900080BD00BFE80C0020D40C0020CC0C00201E
:103AA00098A0000880B400AF044B1B680133034AA0
:103AB000136000BFBD465DF8047B7047F00C00202A
:103AC00080B588B000AF0023FB610023BB6101F02B
:103AD00075FB00233B616E4B1B68013B6C4A136016
:103AE0006B4B1B68002B40F0CB806A4B1B68002B94
:103AF00000F0C6808FE0684BDB68DB68FB61FB6928
:103B00009B6AFB60FB69DB69FA69126A9A60FB6970
:103B10001B6AFA69D2695A60FB685A68FB691833F4
:103B20009A4203D1FB691A6AFB685A60FB6900225A
:103B30009A62FB681B685A1EFB681A60FB695B6926
:103B4000BB60FB699B68FA69D2689A60FB69DB68B5
:103B5000FA6992685A60BB685A68FB6904339A42F2
:103B600003D1FB69DA68BB685A60FB6900225A61BD
:103B7000BB681B685A1EBB681A60FB69DA6A474B50
:103B80001B689A4203D9FB69DB6A444A1360FB69EC
:103B9000DA6A43491346DB009B1A9B000B4404334B
:103BA0001B687B60FB697A689A607B689A68FB692E
:103BB000DA607B689B68FA6904325A60FB691A1DF7
:103BC0007B689A60FB69DA6A1346DB009B1A9B00EC
:103BD000334A1A44FB695A61FB69DA6A3049134671
:103BE000DB009B1A9B000B441B68FA69D26A591CC4
:103BF0002B481346DB009B1A9B0003441960FB69AA
:103C0000DA6A284B1B68DB6A9A4204D9264A3B6968
:103C1000012142F82310204B1B68002B7FF46BAF6F
:103C2000FB69002B01D000F0FFFC204B1B687B617F
:103C30007B69002B12D000F059F80346002B04D00A
:103C4000194A3B69012142F823107B69013B7B61E2
:103C50007B69002BEFD1154B00221A60124A3B6999
:103C600052F82330002B0BD00123BB610D4B1B6896
:103C70000F4B4FF080521A60BFF34F8FBFF36F8F1F
:103C800001F0B6FABB6918462037BD4680BD00BFBB
:103C9000F00C0020C80C0020700C0020D00C00207C
:103CA000A40B0020A00B0020DC0C0020D80C00206E
:103CB00004ED00E080B483B000AF054B1B687B606F
:103CC0007B6818460C37BD465DF8047B704700BF23
:103CD000CC0C002080B400AF034B1B681846BD46D7
:103CE0005DF8047B704700BFC80C002080B588B029
:103CF00000AF0023FB61774B1B68002B40F0DF8097
:103D0000754B1B680133BB61734ABB691360BB69A8
:103D1000002B10D1714B1B687B61714B1B686F4A84
:103D200013606F4A7B6913606E4B1B6801336D4AE9
:103D3000136000F079FC6C4B1B68BA699A42C0F0C2
:103D4000A980664B1B681B68002B04D1664B4FF0A3
:103D5000FF321A609EE0614B1B68DB68DB683B61E9
:103D60003B695B68FB60BA69FB689A4203D25E4AB2
:103D7000FB6813608EE03B695B69BB603B699B68D5
:103D80003A69D2689A603B69DB683A6992685A601E
:103D9000BB685A683B6904339A4203D13B69DA68CD
:103DA000BB685A603B6900225A61BB681B685A1E97
:103DB000BB681A603B699B6A002B1ED03B699B6AFB
:103DC0007B603B69DB693A69126A9A603B691B6AEE
:103DD0003A69D2695A607B685A683B6918339A42DB
:103DE00003D13B691A6A7B685A603B6900229A6278
:103DF0007B681B685A1E7B681A603B69DA6A3B4B1A
:103E00001B689A4203D93B69DB6A384A13603B69F5
:103E1000DA6A37491346DB009B1A9B000B440433D4
:103E20001B683B603B693A689A603B689A683B69EB
:103E3000DA603B689B683A6904325A603B691A1D34
:103E40003B689A603B69DA6A1346DB009B1A9B0069
:103E5000274A1A443B695A613B69DA6A2449134686
:103E6000DB009B1A9B000B441B683A69D26A591C01
:103E70001F481346DB009B1A9B00034419603B69F3
:103E8000DA6A1C4B1B68DB6A9A427FF65AAF012341
:103E9000FB6156E7174B1B68DA6A15491346DB00CE
:103EA0009B1A9B000B441B68012B01D90123FB616A
:103EB000114B1B68002B07D00123FB6104E00F4B63
:103EC0001B6801330D4A1360FB6918462037BD4655
:103ED00080BD00BFF00C0020CC0C0020680C00203E
:103EE0006C0C0020E00C0020E80C0020D00C00201E
:103EF000A40B0020A00B0020DC0C0020D80C00201C
:103F000080B586B000AF384B1B68002B03D0374B11
:103F100001221A6064E0354B00221A60344B1B68A2
:103F20001B6B3B614FF0A533FB60314B1B681A687C
:103F30002F4B1B681B6B9A4216D93B691B68FA68AA
:103F40009A4211D13B6904331B68FA689A420BD13B
:103F50003B6908331B68FA689A4205D13B690C3308
:103F60001B68FA689A4209D0214B1B683433BB6046
:103F70001F4B1B68B9681846FDF7CAF81D4B1B6834
:103F80007B6102E07B69013B7B611B497A691346D7
:103F9000DB009B1A9B000B441B68002BF2D07A6954
:103FA0001346DB009B1A9B00134A13447B607B681B
:103FB0005B685A687B685A607B685A687B6808331C
:103FC0009A4203D17B68DA687B685A607B685B68D9
:103FD000DB68074A1360074A7B691360044B1B6860
:103FE00000BF1837BD4680BDF00C0020DC0C00205F
:103FF000A00B0020D00C0020A40B002080B582B0C4
:1040000000AF78603960074B1B6818331946786831
:10401000FEF742FD0121386800F0E4FC00BF0837DC
:10402000BD4680BDA00B002080B586B000AFF86013
:10403000B9607A60174B1B68BA6842F000429A6117
:10404000FB685B687B61134B1B687A69DA61114B13
:104050001B687A6992681A620E4B1A687B699B68C2
:1040600018325A600B4B1B6803F118027B699A6087
:10407000084B1B68FA689A62FB681B685A1CFB684D
:104080001A600121786800F0ADFC00BF1837BD460A
:1040900080BD00BFA00B002080B586B000AFF860E7
:1040A000B9607A60FB685B687B61164B1B687A6954
:1040B000DA61144B1B687A6992681A62114B1A68AC
:1040C0007B699B6818325A600E4B1B6803F118021B
:1040D0007B699A600B4B1B68FA689A62FB681B68E5
:1040E0005A1CFB681A607B68002B02D04FF0FF332C
:1040F000BB607968B86800F075FC00BF1837BD4632
:1041000080BD00BFA00B002080B489B000AF7860F4
:104110007B68DB68DB68BB61BB699B6A7B61BB69F1
:10412000DB69BA69126A9A60BB691B6ABA69D269AB
:104130005A607B695A68BB6918339A4203D1BB69DC
:104140001A6A7B695A60BB6900229A627B691B68A4
:104150005A1E7B691A604C4B1B68002B61D1BB69EE
:104160005B69FB60BB699B68BA69D2689A60BB698E
:10417000DB68BA6992685A60FB685A68BB690433A5
:104180009A4203D1BB69DA68FB685A60BB690022B6
:104190005A61FB681B685A1EFB681A60BB69DA6AC1
:1041A0003A4B1B689A4203D9BB69DB6A374A1360F2
:1041B000BB69DA6A36491346DB009B1A9B000B4445
:1041C00004331B68BB60BB69BA689A60BB689A68B5
:1041D000BB69DA60BB689B68BA6904325A60BB6924
:1041E0001A1DBB689A60BB69DA6A1346DB009B1A2A
:1041F0009B00274A1A44BB695A61BB69DA6A2449A1
:104200001346DB009B1A9B000B441B68BA69D26AF9
:10421000591C1F481346DB009B1A9B00034419607E
:104220001BE01C4B5B683B61BB693A69DA613B6927
:104230009A68BB691A623B699B68BA6918325A600E
:10424000BB6903F118023B699A60BB69114A9A6223
:10425000104B1B6801330F4A1360BB69DA6A0E4BBF
:104260001B68DB6A9A4205D90123FB610B4B0122D3
:104270001A6001E00023FB61FB6918462437BD4644
:104280005DF8047B704700BFF00C0020D00C0020CC
:10429000A40B0020700C0020A00B0020DC0C0020E0
:1042A00080B487B000AF786039603B6843F000426B
:1042B0007B681A607B68DB687B617B681B693B619C
:1042C0007B685B687A6892689A607B689B687A68AA
:1042D00052685A603B695B687A689A4203D17B688E
:1042E0009A683B695A607B6800221A613B691B68C7
:1042F0005A1E3B691A607B695B69FB607B699B683E
:104300007A69D2689A607B69DB687A6992685A60D8
:10431000FB685A687B6904339A4203D17B69DA6887
:10432000FB685A607B6900225A61FB681B685A1E51
:10433000FB681A607B69DA6A274B1B689A4203D9CB
:104340007B69DB6A244A13607B69DA6A2349134676
:10435000DB009B1A9B000B4404331B68BB607B692A
:10436000BA689A60BB689A687B69DA60BB689B68C8
:104370007A6904325A607B691A1DBB689A607B694E
:10438000DA6A1346DB009B1A9B00144A1A447B69C5
:104390005A617B69DA6A11491346DB009B1A9B005C
:1043A0000B441B687A69D26A591C0C481346DB001F
:1043B0009B1A9B00034419607B69DA6A084B1B68EF
:1043C000DB6A9A4202D9074B01221A6000BF1C37F0
:1043D000BD465DF8047B7047D00C0020A40B002084
:1043E000A00B0020DC0C002080B483B000AF78600C
:1043F000064B1A687B681A60054B1A687B685A601E
:1044000000BF0C37BD465DF8047B7047E00C002010
:10441000CC0C002080B586B000AF7860396000F029
:10442000CDFE264B1B683B617B685B683A69D31AFB
:10443000FB60234B1B6893F85230002B07D0204BB6
:104440001B68002283F8522001237B612EE03B6829
:104450001B68B3F1FF3F02D100237B6126E07B683C
:104460001A68184B1B689A420AD07B685B683A69E5
:104470009A4205D301237B613B6800221A6015E054
:104480003B681B68FA689A420BD23B681A68FB6863
:10449000D21A3B681A607868FFF7A6FF00237B6199
:1044A00004E03B6800221A6001237B6100F0A0FE5B
:1044B0007B6918461837BD4680BD00BFCC0C002074
:1044C000A00B0020E00C002080B400AF034B0122C1
:1044D0001A6000BFBD465DF8047B7047DC0C00200D
:1044E00080B582B000AF786000F052F8064B1B68D0
:1044F000012BF9D9054B4FF080521A60BFF34F8F53
:10450000BFF36F8FF0E700BFA40B002004ED00E0C5
:1045100080B582B000AF00237B600CE07A68134660
:10452000DB009B1A9B00124A13441846FEF781FADF
:104530007B6801337B607B68042BEFD90D48FEF765
:1045400078FA0D48FEF775FA0C48FEF772FA0C4837
:10455000FEF76FFA0B48FEF76CFA0B4B054A1A6030
:104560000A4B054A1A6000BF0837BD4680BD00BF30
:10457000A40B0020300C00204C0C0020700C0020FC
:104580008C0C0020AC0C0020680C00206C0C00206F
:1045900080B582B000AF19E000F010FE104BDB6870
:1045A000DB687B607B6804331846FEF7AEFA0D4B80
:1045B0001B68013B0B4A13600B4B1B68013B0A4A0B
:1045C000136000F015FE786800F010F8064B1B68C9
:1045D000002BE1D100BF00BF0837BD4680BD00BF42
:1045E0008C0C0020C80C0020A80C002080B582B0E4
:1045F00000AF78607B6893F85130002B08D17B685E
:104600001B6B184600F03CFF786800F039FF07E0AC
:104610007B6893F85130012B02D1786800F030FFAD
:1046200000BF0837BD4680BD80B400AF0A4B1B6891
:104630001B68002B04D1094B4FF0FF321A6005E0D4
:10464000054B1B68DB681B68044A136000BFBD464E
:104650005DF8047B704700BF680C0020E80C002068
:1046600080B586B000AF78607B683B6100237B61DA
:104670007B68002B7BD03B69DA6A3F4B1B68DB6AA7
:104680009A426BD23B699B69002B06DB3A4B1B6855
:10469000DB6AC3F105023B699A613B6959693B6971
:1046A000DA6A1346DB009B1A9B00344A1344994292
:1046B0004CD13B6904331846FEF727FA2E4B1B6892
:1046C000DA6A3B69DA623B69DA6A2D4B1B689A4207
:1046D00003D93B69DB6A2A4A13603B69DA6A2749D6
:1046E0001346DB009B1A9B000B4404331B68FB60E2
:1046F0003B69FA689A60FB689A683B69DA60FB6814
:104700009B683A6904325A603B691A1DFB689A60DB
:104710003B69DA6A1346DB009B1A9B00174A1A446E
:104720003B695A613B69DA6A14491346DB009B1AFC
:104730009B000B441B683A69D26A591C0F48134608
:10474000DB009B1A9B000344196004E00A4B1B68C2
:10475000DA6A3B69DA6201237B6108E03B691A6C23
:10476000054B1B68DB6A9A4201D201237B617B699E
:1047700018461837BD4680BDA00B0020A40B0020B2
:10478000D00C002080B586B000AF78607B683B61BC
:1047900000237B617B68002B61D03B695B6C5A1EF8
:1047A0003B695A643B69DA6A3B691B6C9A4256D092
:1047B0003B695B6C002B52D13B6904331846FEF712
:1047C000A4F93B691A6C3B69DA623B69DB6AC3F1A5
:1047D00005023B699A613B69DA6A234B1B689A427E
:1047E00003D93B69DB6A204A13603B69DA6A1F49D7
:1047F0001346DB009B1A9B000B4404331B68FB60D1
:104800003B69FA689A60FB689A683B69DA60FB6802
:104810009B683A6904325A603B691A1DFB689A60CA
:104820003B69DA6A1346DB009B1A9B000F4A1A4465
:104830003B695A613B69DA6A0C491346DB009B1AF3
:104840009B000B441B683A69D26A591C07481346FF
:10485000DB009B1A9B000344196001237B617B6989
:1048600018461837BD4680BDD00C0020A40B002090
:1048700080B588B000AF786039607B68BB61012388
:104880007B617B68002B75D0BB691B6C3A689A42D0
:1048900002D93B68FB6102E0BB691B6CFB61BB6931
:1048A000DB6AFA699A4265D0BB695B6C7A699A42A5
:1048B00060D1BB69DB6A3B61BB69FA69DA62BB69DB
:1048C0009B69002B04DBFB69C3F10502BB699A619C
:1048D000BB6959693A691346DB009B1A9B00274A5A
:1048E0001344994246D1BB6904331846FEF70DF9CB
:1048F000BB69DA6A224B1B689A4203D9BB69DB6A3F
:104900001F4A1360BB69DA6A1C491346DB009B1A15
:104910009B000B4404331B68FB60BB69FA689A6018
:10492000FB689A68BB69DA60FB689B68BA69043205
:104930005A60BB691A1DFB689A60BB69DA6A134644
:10494000DB009B1A9B000D4A1A44BB695A61BB6984
:10495000DA6A0A491346DB009B1A9B000B441B686A
:10496000BA69D26A591C05481346DB009B1A9B00A2
:104970000344196000BF2037BD4680BDA40B002052
:10498000D00C002080B483B000AF094B1B689B693A
:104990007B60074B1B68DA6A054B1B68C2F1050296
:1049A0009A617B6818460C37BD465DF8047B7047FA
:1049B000A00B002080B483B000AF094B1B687B6064
:1049C0007B68002B04D07B685B6C5A1C7B685A6444
:1049D0007B6818460C37BD465DF8047B704700BF06
:1049E000A00B002080B588B000AF78603960324BF2
:1049F0001B68FB61314B1B68BB61314B1B687B61E2
:104A0000304B1B68002283F852202E4B1B68043366
:104A10001846FEF77AF87B68B3F1FF3F24D13B6874
:104A2000002B21D0284B5B683B61264B1B683A6901
:104A30009A60244B1B683A699268DA60214B1A68C5
:104A40003B699B6804325A601E4B1B681A1D3B6908
:104A50009A601C4B1B681C4A5A611B4B1B68013334
:104A6000194A136000BF22E0FA697B681344FB60B7
:104A7000144B1B68FA685A60FA68FB699A4207D2BD
:104A8000104B1B68043319467869FEF705F80EE0F1
:104A90000C4B1B6804331946B869FDF7FDFF0B4B3F
:104AA0001B68FA689A4202D2084AFB68136000BF8A
:104AB0002037BD4680BD00BFCC0C0020680C002014
:104AC0006C0C0020A00B0020AC0C0020E80C002097
:104AD00080B485B000AFF860B9607A60FB68074ABF
:104AE0001A60BB68064A1A607B6880221A6000BFA1
:104AF0001437BD465DF8047B704700BFF40C0020FE
:104B0000480D002080B485B000AFF860B9607A60CD
:104B1000FB68074A1A60BB68064A1A607B688022F5
:104B20001A6000BF1437BD465DF8047B704700BFB4
:104B3000480F00209C0F002080B588B004AF0023F0
:104B4000FB6000F059FA154B1B68002B20D00023A6
:104B5000BB6000237B603A46391D07F10803184605
:104B6000FFF7D0FF39687B68BA680292019304238B
:104B7000009300230A460A490A48FEF739FD034616
:104B8000094A1360084B1B68002B01D00123FB600E
:104B9000FB6818461037BD4680BD00BFDC11002001
:104BA00090A00008514C0008E011002080B584B0AE
:104BB00000AFF860B9607A6008E0FB689B69BA688A
:104BC0001344BB60FB681B6AF8689847FB689A69E6
:104BD000BB68D118BB687A68F86800F0DDF8034656
:104BE000002BEAD100BF00BF1037BD4680BD0000DA
:104BF00080B584B000AF78603960144B1B68DB6807
:104C0000DB68FB60FB6804331846FDF77EFFFB683A
:104C100093F8243003F00403002B05D03A68796838
:104C2000F868FFF7C3FF08E0FB6893F8243023F02F
:104C30000103DAB2FB6883F82420FB681B6AF8687A
:104C4000984700BF1037BD4680BD00BFD41100207B
:104C500080B584B000AF786007F10803184600F013
:104C600057F8F860BB681946F86800F003F800F0E0
:104C7000D5F8F1E780B584B000AF78603960FEF711
:104C800011FF07F10803184600F066F8F860BB68EA
:104C9000002B30D13B68002B0AD17A68FB689A421E
:104CA00006D8FEF70DFFF9687868FFF7A1FF24E04A
:104CB0003B68002B08D0134B1B681B68002B01D1ED
:104CC000012300E000233B600F4B18687A68FB6803
:104CD000D31A3A681946FEF7E4FBFEF7F1FE0346E5
:104CE000002B0AD1094B4FF080521A60BFF34F8F4F
:104CF000BFF36F8F01E0FEF7E3FE00BF1037BD4644
:104D000080BD00BFD8110020DC11002004ED00E0C0
:104D100080B485B000AF78600E4B1B681B68002B19
:104D200001D1012200E000227B681A607B681B68C9
:104D3000002B05D1074B1B68DB681B68FB6001E09B
:104D40000023FB60FB6818461437BD465DF8047B02
:104D5000704700BFD411002080B584B000AF7860E8
:104D6000FEF7A8FFF8600B4B1B68FA689A4205D261
:104D700000F01CF97B6801221A6002E07B680022C7
:104D80001A60044AFB681360FB6818461037BD467A
:104D900080BD00BFE411002080B586B000AFF86090
:104DA000B9607A603B6000237B61FB68BA685A6037
:104DB000FB68FA681A61BA687B689A4212D87A6806
:104DC0003B68D21AFB689B699A4202D301237B613C
:104DD0001BE0104B1A68FB68043319461046FDF7B8
:104DE0005BFE12E07A683B689A4206D2BA683B687A
:104DF0009A4202D301237B6107E0074B1A68FB68E4
:104E0000043319461046FDF747FE7B6918461837EC
:104E1000BD4680BDD8110020D411002080B588B0D7
:104E200000AF3B1D00221A605A609A60DA60ABE066
:104E30007B68002B0ADA3B1D0433FB61FB691B68AE
:104E4000FA695068FA699268114698477B68002BA6
:104E5000C0F29A80FB68BB61BB69002B00F09480B4
:104E6000BB695B69002B04D0BB6904331846FDF7AE
:104E70004CFE3B461846FFF76FFF78617B68013BAD
:104E8000082B7ED801A252F823F000BFB14E0008D3
:104E9000B14E0008194F00082D4F0008594F000867
:104EA000B14E0008B14E0008194F00082D4F000800
:104EB000BB6993F8243043F00103DAB2BB6983F88D
:104EC0002420BA68BB699B69D118BB687A69B86944
:104ED000FFF762FF0346002B55D0BB6993F82430DF
:104EE00003F00403002B09D0BA68BB699B69134423
:104EF0007A691946B869FFF759FE08E0BB6993F86B
:104F0000243023F00103DAB2BB6983F82420BB69A3
:104F10001B6AB869984736E0BB6993F8243023F0E0
:104F20000103DAB2BB6983F824202DE0BB6993F852
:104F3000243043F00103DAB2BB6983F82420BA6855
:104F4000BB699A61BB699A697B69D1187B697A6987
:104F5000B869FFF721FF17E0BB6993F8243003F02D
:104F60000203002B03D1B86900F08AFA0CE0BB6998
:104F700093F8243023F00103DAB2BB6983F82420CC
:104F800002E000BF00E000BF074B1B68391D002294
:104F90001846FDF7E7FF0346002B7FF449AF00BF3B
:104FA00000BF2037BD4680BDDC11002080B582B037
:104FB00000AF09E00E4B1B68DB681B683B604FF0DD
:104FC000FF313868FFF714FE094B1B681B68002B84
:104FD000F0D1074B1B687B60064B1B68044A1360CB
:104FE000044A7B68136000BF0837BD4680BD00BF20
:104FF000D4110020D811002080B582B002AF00F09B
:10500000DDF8104B1B68002B16D10F48FDF711FD82
:105010000E48FDF70EFD0E4B0B4A1A600D4B0B4A66
:105020001A60002300930C4B0C4A10210A20FDF754
:105030000BFE0346034A136000F0DAF800BFBD46DA
:1050400080BD00BFDC1100209C110020B8110020A1
:10505000D4110020D811002088120020E81100206F
:1050600080B485B000AFF860B9607A60FB68043B3B
:10507000FB60FB684FF080721A60FB68043BFB60CA
:10508000BB6823F00102FB681A60FB68043BFB600D
:105090000C4AFB681A60FB68143BFB607A68FB688B
:1050A0001A60FB68043BFB60FB686FF002021A6049
:1050B000FB68203BFB60FB6818461437BD465DF873
:1050C000047B7047C950000880B483B000AF002350
:1050D0003B604FF0500383F31188BFF36F8FBFF332
:1050E0004F8F7B6000BF00BF3B68002BFCD000BF30
:1050F00000BF0C37BD465DF8047B7047064B19684E
:105100000868B0E8F04F80F30988BFF36F8F4FF065
:10511000000080F311887047A00B002000BF00BF83
:1051200008480068006880F308884FF0000080F3AA
:10513000148862B661B6BFF34F8FBFF36F8F00DF85
:1051400000BF000008ED00E000BF00BF80B582B0E6
:1051500000AF154B1B687B60144B1B68134A43F46C
:105160007F031360114B1B68104A43F07F431360A9
:105170000F4B00221A6000F0A9F80E4B00221A60B3
:1051800000F0C0F80C4B1B680B4A43F0404313601F
:10519000FFF7C6FFFEF7B4FEFFF796FF00231846A1
:1051A0000837BD4680BD00BF08ED00E020ED00E0FF
:1051B0001CED00E00004002034EF00E080B483B078
:1051C00000AF4FF0500383F31188BFF36F8FBFF32D
:1051D0004F8F7B6000BF054B1B680133034A136090
:1051E00000BF0C37BD465DF8047B7047000400200B
:1051F00080B483B000AF0A4B1B68013B084A1360C0
:10520000074B1B68002B05D100237B607B6883F371
:10521000118800BF00BF0C37BD465DF8047B7047A6
:1052200000040020EFF30980BFF36F8F144B1A685E
:105230001EF0100F08BF20ED108A20E9F04F10601B
:105240002DE909004FF0500080F31188BFF34F8F14
:10525000BFF36F8FFEF754FE4FF0000080F311880C
:1052600009BC19680868B0E8F04F1EF0100F08BFBD
:10527000B0EC108A80F30988BFF36F8F704700008D
:10528000A00B002000BF00BF80B582B000AF4FF080
:10529000500383F31188BFF36F8FBFF34F8F7B6091
:1052A00000BFFEF723FD0346002B03D0064B4FF053
:1052B00080521A6000233B603B6883F3118800BF73
:1052C00000BF0837BD4680BD04ED00E080B400AFEC
:1052D000084B00221A60084B00221A60074B084A4C
:1052E0001A60044B07221A6000BFBD465DF8047BBC
:1052F000704700BF10E000E018E000E014E000E0BC
:105300003F900200DFF80C00016841F47001016079
:105310007047000088ED00E000BF00BF80B588B096
:1053200000AF786000237B6100233B617B68002B2A
:1053300022D00823DB437A689A421BD808227B6874
:1053400013447B607B6803F00703002B14D07B6859
:1053500003F00703C3F10803FB60FB68DB437A68D3
:105360009A4204D87A68FB6813447B6004E0002307
:105370007B6001E000237B60FEF794FB3B4B1B68E6
:10538000002B01D100F0B6F87B68002B67DB7B684F
:10539000002B64D0364B1B687A689A425FD8354B35
:1053A000BB61344B1B68FB6104E0FB69BB61FB69BB
:1053B0001B68FB61FB695B687A689A4203D9FB69E9
:1053C0001B68002BF1D1294B1B68FA699A4246D021
:1053D000BB691B68082213447B61FB691A68BB69BF
:1053E0001A60FB695A687B68D21A08235B009A42EC
:1053F00013D9FA697B681344BB60FB695A687B6800
:10540000D21ABB685A60FB697A685A60BB691A682D
:10541000BB681A60BB69BA681A60154B1A68FB69E9
:105420005B68D31A124A1360114B1A68124B1B683F
:105430009A4203D20E4B1B680F4A1360FB695B68EC
:105440003B61FB695B6843F00042FB695A60FB69A2
:1054500000221A60094B1B680133084A1360FEF7EB
:105460002FFB7B6918462037BD4680BDEC9200209B
:10547000F0920020E4920020F4920020F8920020A4
:1054800080B584B000AF78607B68FB607B68002BE0
:1054900027D008235B42FA681344FB60FB68BB60BB
:1054A000BB685B68002B1CDABB681B68002B18D13B
:1054B000BB685B6823F00042BB685A60FEF7F2FAF3
:1054C000BB685A68094B1B681344084A1360B868E4
:1054D00000F06AF8064B1B680133054A1360FEF7BB
:1054E000EFFA00BF1037BD4680BD00BFF09200202C
:1054F000FC92002080B485B000AF4FF40043BB6045
:10550000244BFB60FB6803F00703002B0CD0FB6807
:105510000733FB60FB6823F00703FB60BA68FB6896
:10552000D31A1C4A1344BB60FB681B4A13601A4B16
:1055300000225A60FA68BB6813447B6008227B68CB
:105540009B1A7B607B6823F007037B607B68134AB0
:105550001360124B1B6800225A60104B1B6800221C
:105560001A60FB683B603B687A68D21A3B685A60F5
:105570000A4B1A683B681A603B685B68084A13600C
:105580003B685B68074A136000BF1437BD465DF88F
:10559000047B7047E4120020E4920020EC9200208B
:1055A000F4920020F092002080B485B000AF7860C3
:1055B000284BFB6002E0FB681B68FB60FB681B6814
:1055C0007A689A42F7D8FB68BB60FB685B68BA6888
:1055D00013447A689A4208D1FB685A687B685B6812
:1055E0001A44FB685A60FB687B607B68BB607B6821
:1055F0005B68BA681A44FB681B689A4218D1FB685A
:105600001A68154B1B689A420DD07B685A68FB6874
:105610001B685B681A447B685A60FB681B681A68E1
:105620007B681A6008E00C4B1A687B681A6003E01C
:10563000FB681A687B681A60FA687B689A4202D035
:10564000FB687A681A6000BF1437BD465DF8047BBA
:10565000704700BFE4920020EC9200200D48854680
:10566000FBF750FD0C480D490D4A002302E0D458C9
:10567000C4500433C4188C42F9D30A4A0A4C00239C
:1056800001E013600432A242FBD300F0BDF9FBF746
:1056900069FFFEE70000022000040020D80A002075
:1056A00040A40008D80A00200C960020FEE7000065
:1056B000002310B50446C0E90033C0E90433836019
:1056C00081814366C2818361194608225C3000F003
:1056D00031F90D4B23620D4B63620D4BA3620D4BF1
:1056E000E3620D4BE4619C4206D003F168029442F0
:1056F00002D0D0339C4205D104F15800BDE81040DF
:1057000000F0A6B910BD00BF355800085758000872
:105710008F580008B358000800930020024A03493C
:10572000034800F069B800BF040400204B7500086E
:105730001804002041680C4B994210B5044601D072
:1057400001F003FFA168094B994202D0204601F005
:10575000FCFEE168064B994204D02046BDE81040AB
:1057600001F0F3BE10BD00BF00930020689300203D
:10577000D093002010B50B4B0B4C0C4A1A602046FE
:1057800000220421FFF794FF04F16800012209219F
:10579000FFF78EFF04F1D0000222BDE81040122175
:1057A000FFF786BF38940020009300201D570008A3
:1057B000014800F04FB900BF42940020014800F0BA
:1057C0004AB900BF4294002010B50446FFF7F0FF2D
:1057D000636B1BB1BDE81040FFF7F0BF044B636380
:1057E000044B1B68002BF5D1FFF7C4FFF2E700BFA5
:1057F00035570008389400202DE9F84307468846BD
:1058000014460026D4E90195B9F1010905D52468AB
:10581000002CF7D13046BDE8F883AB89012B07D9BE
:10582000B5F90E30013303D029463846C047064348
:105830006835E9E710B50C46B1F90E1000F0BAF87A
:105840000028ABBF236DA3891B1823F48053ACBF82
:105850002365A38110BD2DE9F0411F468B89DB052F
:1058600005460C46164605D5B1F90E100223002256
:1058700000F08EF8A389B4F90E1023F48053A381AD
:1058800032463B462846BDE8F04100F0A5B810B5C9
:105890000C46B1F90E1000F07BF8431CA38915BF2C
:1058A000206523F4805343F48053A38118BFA38160
:1058B00010BDB1F90E1000F05BB830B51446002CE5
:1058C0009BB005461A4605DA8B2303604FF0FF3084
:1058D0001BB030BD4FF40273ADF80C304FF0000335
:1058E000199314BF04F1FF332346029305934FF637
:1058F000FF7300910491ADF80E3069461E9B00F0D5
:1059000027FC431CBCBF8B232B60002CE0D0009BEA
:1059100000221A70DCE7000007B5009313460A4620
:10592000014603480068FFF7C8FF03B05DF804FBB9
:105930001004002002440346934200D1704703F84C
:10594000011BF9E70A7870B56AB970BD9A4209D1AE
:105950000C46054614F8013F002BF6D015F8016FF0
:105960009E42F7D001300378002BEFD11846ECE7C8
:1059700038B5064D0023044608462B60FBF757FB5D
:10598000431C02D12B6803B1236038BD3C94002036
:1059900038B5074D04460846114600222A601A46CB
:1059A000FBF76CFB431C02D12B6803B1236038BDAD
:1059B0003C94002038B5074D0446084611460022A5
:1059C0002A601A46FBF7FAFA431C02D12B6803B18E
:1059D000236038BD3C94002038B5074D0446084686
:1059E000114600222A601A46FBF705FB431C02D130
:1059F0002B6803B1236038BD3C940020014B18682C
:105A0000704700BF1004002070B50D4D0D4C641B95
:105A1000A4100026A64209D10B4D0C4C04F0ACFAA0
:105A2000641BA4100026A64205D170BD55F8043BA6
:105A300098470136EEE755F8043B98470136F2E700
:105A400034A4000834A4000834A400083CA40008CE
:105A500070477047704770470A44914200F1FF3326
:105A600000D1704710B511F8014B03F8014F914276
:105A7000F9D110BD024B13B1024800F005B87047D0
:105A800000000000A1770008002301461A461846CE
:105A900001F0DABE2DE9F84306460820894601F0F8
:105AA00093FE244F8046304600F044FBBB685D689F
:105AB00025F00305A5F11104A4EB09044444B4FB4B
:105AC000F8F4013C08FB04F4A04505DD304600F085
:105AD00037FB0020BDE8F8830021304601F050FE7E
